{
  "contractName": "CryptoStockZ",
  "abi": [
    {
      "anonymous": false,
      "inputs": [
        {
          "indexed": true,
          "internalType": "address",
          "name": "previousOwner",
          "type": "address"
        },
        {
          "indexed": true,
          "internalType": "address",
          "name": "newOwner",
          "type": "address"
        }
      ],
      "name": "OwnershipTransferred",
      "type": "event"
    },
    {
      "anonymous": false,
      "inputs": [
        {
          "indexed": false,
          "internalType": "address",
          "name": "_owner",
          "type": "address"
        },
        {
          "indexed": false,
          "internalType": "string",
          "name": "_name",
          "type": "string"
        },
        {
          "indexed": false,
          "internalType": "string",
          "name": "_ean",
          "type": "string"
        },
        {
          "indexed": false,
          "internalType": "string",
          "name": "_sku",
          "type": "string"
        },
        {
          "indexed": false,
          "internalType": "uint256",
          "name": "_numberTransactions",
          "type": "uint256"
        },
        {
          "indexed": false,
          "internalType": "uint256",
          "name": "dna",
          "type": "uint256"
        },
        {
          "indexed": false,
          "internalType": "uint8",
          "name": "_level",
          "type": "uint8"
        }
      ],
      "name": "createProductEvent",
      "type": "event"
    },
    {
      "anonymous": false,
      "inputs": [
        {
          "indexed": false,
          "internalType": "address",
          "name": "_from",
          "type": "address"
        },
        {
          "indexed": false,
          "internalType": "address",
          "name": "_to",
          "type": "address"
        },
        {
          "indexed": false,
          "internalType": "address",
          "name": "_idProduct",
          "type": "address"
        }
      ],
      "name": "transferTokenEvent",
      "type": "event"
    },
    {
      "inputs": [],
      "name": "owner",
      "outputs": [
        {
          "internalType": "address",
          "name": "",
          "type": "address"
        }
      ],
      "stateMutability": "view",
      "type": "function"
    },
    {
      "inputs": [
        {
          "internalType": "address",
          "name": "newOwner",
          "type": "address"
        }
      ],
      "name": "transferOwnership",
      "outputs": [],
      "stateMutability": "nonpayable",
      "type": "function"
    },
    {
      "inputs": [
        {
          "internalType": "address",
          "name": "_StockZStorageAddr",
          "type": "address"
        }
      ],
      "name": "setStockZStorage",
      "outputs": [],
      "stateMutability": "nonpayable",
      "type": "function"
    },
    {
      "inputs": [],
      "name": "checkConnection",
      "outputs": [
        {
          "internalType": "string",
          "name": "",
          "type": "string"
        }
      ],
      "stateMutability": "pure",
      "type": "function"
    },
    {
      "inputs": [
        {
          "internalType": "address",
          "name": "_productTokenAddr",
          "type": "address"
        }
      ],
      "name": "setProductToken",
      "outputs": [],
      "stateMutability": "nonpayable",
      "type": "function"
    },
    {
      "inputs": [
        {
          "internalType": "string",
          "name": "_ean",
          "type": "string"
        },
        {
          "internalType": "string",
          "name": "_sku",
          "type": "string"
        },
        {
          "internalType": "string",
          "name": "_name",
          "type": "string"
        }
      ],
      "name": "createProduct",
      "outputs": [],
      "stateMutability": "nonpayable",
      "type": "function"
    },
    {
      "inputs": [
        {
          "internalType": "address",
          "name": "_to",
          "type": "address"
        },
        {
          "internalType": "address",
          "name": "_idProduct",
          "type": "address"
        }
      ],
      "name": "transferProduct",
      "outputs": [],
      "stateMutability": "nonpayable",
      "type": "function"
    },
    {
      "inputs": [],
      "name": "getProducts",
      "outputs": [
        {
          "internalType": "contract Product[]",
          "name": "",
          "type": "address[]"
        }
      ],
      "stateMutability": "view",
      "type": "function"
    },
    {
      "inputs": [
        {
          "internalType": "address",
          "name": "_idProduct",
          "type": "address"
        }
      ],
      "name": "getProductFromAddress",
      "outputs": [
        {
          "internalType": "string",
          "name": "",
          "type": "string"
        },
        {
          "internalType": "string",
          "name": "",
          "type": "string"
        },
        {
          "internalType": "string",
          "name": "",
          "type": "string"
        },
        {
          "internalType": "uint256",
          "name": "",
          "type": "uint256"
        },
        {
          "internalType": "uint256",
          "name": "",
          "type": "uint256"
        },
        {
          "internalType": "uint8",
          "name": "",
          "type": "uint8"
        }
      ],
      "stateMutability": "view",
      "type": "function"
    },
    {
      "inputs": [
        {
          "internalType": "address",
          "name": "_idProduct",
          "type": "address"
        }
      ],
      "name": "getOwnerOfProduct",
      "outputs": [
        {
          "internalType": "address",
          "name": "",
          "type": "address"
        }
      ],
      "stateMutability": "view",
      "type": "function"
    },
    {
      "inputs": [],
      "name": "getStorageAddress",
      "outputs": [
        {
          "internalType": "address",
          "name": "",
          "type": "address"
        }
      ],
      "stateMutability": "view",
      "type": "function"
    },
    {
      "inputs": [],
      "name": "getProductTokenAddress",
      "outputs": [
        {
          "internalType": "address",
          "name": "",
          "type": "address"
        }
      ],
      "stateMutability": "view",
      "type": "function"
    },
    {
      "inputs": [],
      "name": "getTotalTokens",
      "outputs": [
        {
          "internalType": "uint256",
          "name": "",
          "type": "uint256"
        }
      ],
      "stateMutability": "view",
      "type": "function"
    },
    {
      "inputs": [],
      "name": "getCredentials",
      "outputs": [
        {
          "internalType": "string",
          "name": "",
          "type": "string"
        },
        {
          "internalType": "string",
          "name": "",
          "type": "string"
        }
      ],
      "stateMutability": "view",
      "type": "function"
    },
    {
      "inputs": [
        {
          "internalType": "address",
          "name": "_owner",
          "type": "address"
        }
      ],
      "name": "getBalanceOwner",
      "outputs": [
        {
          "internalType": "uint256",
          "name": "",
          "type": "uint256"
        }
      ],
      "stateMutability": "view",
      "type": "function"
    },
    {
      "inputs": [
        {
          "internalType": "address",
          "name": "_from",
          "type": "address"
        },
        {
          "internalType": "address",
          "name": "_to",
          "type": "address"
        },
        {
          "internalType": "address",
          "name": "_product",
          "type": "address"
        }
      ],
      "name": "transferByRequest",
      "outputs": [],
      "stateMutability": "nonpayable",
      "type": "function"
    }
  ],
  "bytecode": "0x6080604052604051620000129062000122565b604051809103906000f0801580156200002f573d6000803e3d6000fd5b50600260006101000a81548173ffffffffffffffffffffffffffffffffffffffff021916908373ffffffffffffffffffffffffffffffffffffffff1602179055506040516200007e9062000130565b604051809103906000f0801580156200009b573d6000803e3d6000fd5b50600360006101000a81548173ffffffffffffffffffffffffffffffffffffffff021916908373ffffffffffffffffffffffffffffffffffffffff160217905550336000806101000a81548173ffffffffffffffffffffffffffffffffffffffff021916908373ffffffffffffffffffffffffffffffffffffffff1602179055506200013e565b612db1806200423283390190565b6105eb8062006fe383390190565b6140e4806200014e6000396000f3fe60806040523480156200001157600080fd5b5060043610620001185760003560e01c80638865518111620000a5578063d5e10e2a116200006f578063d5e10e2a14620007b1578063d768468b14620007fd578063f08b82e614620009f2578063f2fde38b1462000a125762000118565b80638865518114620006145780638da5cb5b146200067b578063c29b2f2014620006c7578063ce1e9535146200072a5762000118565b80634ff6ee1711620000e75780634ff6ee17146200046357806356279a7e14620004aa5780636953cd0c146200053257806388468ea714620005b95762000118565b80630fbbc933146200011d57806322941338146200016457806336ef3532146200025b578063393a4d341462000417575b600080fd5b62000162600480360360208110156200013557600080fd5b81019080803573ffffffffffffffffffffffffffffffffffffffff16906020019092919050505062000a59565b005b6200016e62000b44565b604051808060200180602001838103835285818151815260200191508051906020019080838360005b83811015620001b457808201518184015260208101905062000197565b50505050905090810190601f168015620001e25780820380516001836020036101000a031916815260200191505b50838103825284818151815260200191508051906020019080838360005b838110156200021d57808201518184015260208101905062000200565b50505050905090810190601f1680156200024b5780820380516001836020036101000a031916815260200191505b5094505050505060405180910390f35b620002a0600480360360208110156200027357600080fd5b81019080803573ffffffffffffffffffffffffffffffffffffffff16906020019092919050505062000e23565b604051808060200180602001806020018781526020018681526020018560ff1660ff16815260200184810384528a818151815260200191508051906020019080838360005b8381101562000302578082015181840152602081019050620002e5565b50505050905090810190601f168015620003305780820380516001836020036101000a031916815260200191505b50848103835289818151815260200191508051906020019080838360005b838110156200036b5780820151818401526020810190506200034e565b50505050905090810190601f168015620003995780820380516001836020036101000a031916815260200191505b50848103825288818151815260200191508051906020019080838360005b83811015620003d4578082015181840152602081019050620003b7565b50505050905090810190601f168015620004025780820380516001836020036101000a031916815260200191505b50995050505050505050505060405180910390f35b6200042162001c97565b604051808273ffffffffffffffffffffffffffffffffffffffff1673ffffffffffffffffffffffffffffffffffffffff16815260200191505060405180910390f35b620004a8600480360360208110156200047b57600080fd5b81019080803573ffffffffffffffffffffffffffffffffffffffff16906020019092919050505062001d68565b005b620004b462001e53565b6040518080602001828103825283818151815260200191508051906020019080838360005b83811015620004f6578082015181840152602081019050620004d9565b50505050905090810190601f168015620005245780820380516001836020036101000a031916815260200191505b509250505060405180910390f35b62000577600480360360208110156200054a57600080fd5b81019080803573ffffffffffffffffffffffffffffffffffffffff16906020019092919050505062001e90565b604051808273ffffffffffffffffffffffffffffffffffffffff1673ffffffffffffffffffffffffffffffffffffffff16815260200191505060405180910390f35b620005fe60048036036020811015620005d157600080fd5b81019080803573ffffffffffffffffffffffffffffffffffffffff1690602001909291905050506200202b565b6040518082815260200191505060405180910390f35b62000679600480360360408110156200062c57600080fd5b81019080803573ffffffffffffffffffffffffffffffffffffffff169060200190929190803573ffffffffffffffffffffffffffffffffffffffff16906020019092919050505062002111565b005b62000685620025aa565b604051808273ffffffffffffffffffffffffffffffffffffffff1673ffffffffffffffffffffffffffffffffffffffff16815260200191505060405180910390f35b620006d1620025cf565b6040518080602001828103825283818151815260200191508051906020019060200280838360005b8381101562000716578082015181840152602081019050620006f9565b505050509050019250505060405180910390f35b620007af600480360360608110156200074257600080fd5b81019080803573ffffffffffffffffffffffffffffffffffffffff169060200190929190803573ffffffffffffffffffffffffffffffffffffffff169060200190929190803573ffffffffffffffffffffffffffffffffffffffff1690602001909291905050506200271b565b005b620007bb620029a0565b604051808273ffffffffffffffffffffffffffffffffffffffff1673ffffffffffffffffffffffffffffffffffffffff16815260200191505060405180910390f35b620009f0600480360360608110156200081557600080fd5b81019080803590602001906401000000008111156200083357600080fd5b8201836020820111156200084657600080fd5b803590602001918460018302840111640100000000831117156200086957600080fd5b91908080601f016020809104026020016040519081016040528093929190818152602001838380828437600081840152601f19601f82011690508083019250505050505050919291929080359060200190640100000000811115620008cd57600080fd5b820183602082011115620008e057600080fd5b803590602001918460018302840111640100000000831117156200090357600080fd5b91908080601f016020809104026020016040519081016040528093929190818152602001838380828437600081840152601f19601f820116905080830192505050505050509192919290803590602001906401000000008111156200096757600080fd5b8201836020820111156200097a57600080fd5b803590602001918460018302840111640100000000831117156200099d57600080fd5b91908080601f016020809104026020016040519081016040528093929190818152602001838380828437600081840152601f19601f82011690508083019250505050505050919291929050505062002a71565b005b620009fc6200322f565b6040518082815260200191505060405180910390f35b62000a576004803603602081101562000a2a57600080fd5b81019080803573ffffffffffffffffffffffffffffffffffffffff169060200190929190505050620032dc565b005b6000809054906101000a900473ffffffffffffffffffffffffffffffffffffffff1673ffffffffffffffffffffffffffffffffffffffff163373ffffffffffffffffffffffffffffffffffffffff161462000b00576040517f08c379a00000000000000000000000000000000000000000000000000000000081526004018080602001828103825260328152602001806200407d6032913960400191505060405180910390fd5b80600160006101000a81548173ffffffffffffffffffffffffffffffffffffffff021916908373ffffffffffffffffffffffffffffffffffffffff16021790555050565b606080600260009054906101000a900473ffffffffffffffffffffffffffffffffffffffff1673ffffffffffffffffffffffffffffffffffffffff166306fdde036040518163ffffffff1660e01b815260040160006040518083038186803b15801562000bb057600080fd5b505afa15801562000bc5573d6000803e3d6000fd5b505050506040513d6000823e3d601f19601f82011682018060405250602081101562000bf057600080fd5b810190808051604051939291908464010000000082111562000c1157600080fd5b8382019150602082018581111562000c2857600080fd5b825186600182028301116401000000008211171562000c4657600080fd5b8083526020830192505050908051906020019080838360005b8381101562000c7c57808201518184015260208101905062000c5f565b50505050905090810190601f16801562000caa5780820380516001836020036101000a031916815260200191505b50604052505050600260009054906101000a900473ffffffffffffffffffffffffffffffffffffffff1673ffffffffffffffffffffffffffffffffffffffff166395d89b416040518163ffffffff1660e01b815260040160006040518083038186803b15801562000d1a57600080fd5b505afa15801562000d2f573d6000803e3d6000fd5b505050506040513d6000823e3d601f19601f82011682018060405250602081101562000d5a57600080fd5b810190808051604051939291908464010000000082111562000d7b57600080fd5b8382019150602082018581111562000d9257600080fd5b825186600182028301116401000000008211171562000db057600080fd5b8083526020830192505050908051906020019080838360005b8381101562000de657808201518184015260208101905062000dc9565b50505050905090810190601f16801562000e145780820380516001836020036101000a031916815260200191505b50604052505050915091509091565b6060806060600080600080600160009054906101000a900473ffffffffffffffffffffffffffffffffffffffff1673ffffffffffffffffffffffffffffffffffffffff1663aa232d25896040518263ffffffff1660e01b8152600401808273ffffffffffffffffffffffffffffffffffffffff1673ffffffffffffffffffffffffffffffffffffffff16815260200191505060206040518083038186803b15801562000ece57600080fd5b505afa15801562000ee3573d6000803e3d6000fd5b505050506040513d602081101562000efa57600080fd5b81019080805190602001909291905050509050600160009054906101000a900473ffffffffffffffffffffffffffffffffffffffff1673ffffffffffffffffffffffffffffffffffffffff1663c29b2f206040518163ffffffff1660e01b815260040160006040518083038186803b15801562000f7657600080fd5b505afa15801562000f8b573d6000803e3d6000fd5b505050506040513d6000823e3d601f19601f82011682018060405250602081101562000fb657600080fd5b810190808051604051939291908464010000000082111562000fd757600080fd5b8382019150602082018581111562000fee57600080fd5b82518660208202830111640100000000821117156200100c57600080fd5b8083526020830192505050908051906020019060200280838360005b838110156200104557808201518184015260208101905062001028565b5050505090500160405250505081815181106200105e57fe5b602002602001015173ffffffffffffffffffffffffffffffffffffffff166317d7de7c6040518163ffffffff1660e01b815260040160006040518083038186803b158015620010ac57600080fd5b505afa158015620010c1573d6000803e3d6000fd5b505050506040513d6000823e3d601f19601f820116820180604052506020811015620010ec57600080fd5b81019080805160405193929190846401000000008211156200110d57600080fd5b838201915060208201858111156200112457600080fd5b82518660018202830111640100000000821117156200114257600080fd5b8083526020830192505050908051906020019080838360005b83811015620011785780820151818401526020810190506200115b565b50505050905090810190601f168015620011a65780820380516001836020036101000a031916815260200191505b50604052505050600160009054906101000a900473ffffffffffffffffffffffffffffffffffffffff1673ffffffffffffffffffffffffffffffffffffffff1663c29b2f206040518163ffffffff1660e01b815260040160006040518083038186803b1580156200121657600080fd5b505afa1580156200122b573d6000803e3d6000fd5b505050506040513d6000823e3d601f19601f8201168201806040525060208110156200125657600080fd5b81019080805160405193929190846401000000008211156200127757600080fd5b838201915060208201858111156200128e57600080fd5b8251866020820283011164010000000082111715620012ac57600080fd5b8083526020830192505050908051906020019060200280838360005b83811015620012e5578082015181840152602081019050620012c8565b505050509050016040525050508281518110620012fe57fe5b602002602001015173ffffffffffffffffffffffffffffffffffffffff16638dd743de6040518163ffffffff1660e01b815260040160006040518083038186803b1580156200134c57600080fd5b505afa15801562001361573d6000803e3d6000fd5b505050506040513d6000823e3d601f19601f8201168201806040525060208110156200138c57600080fd5b8101908080516040519392919084640100000000821115620013ad57600080fd5b83820191506020820185811115620013c457600080fd5b8251866001820283011164010000000082111715620013e257600080fd5b8083526020830192505050908051906020019080838360005b8381101562001418578082015181840152602081019050620013fb565b50505050905090810190601f168015620014465780820380516001836020036101000a031916815260200191505b50604052505050600160009054906101000a900473ffffffffffffffffffffffffffffffffffffffff1673ffffffffffffffffffffffffffffffffffffffff1663c29b2f206040518163ffffffff1660e01b815260040160006040518083038186803b158015620014b657600080fd5b505afa158015620014cb573d6000803e3d6000fd5b505050506040513d6000823e3d601f19601f820116820180604052506020811015620014f657600080fd5b81019080805160405193929190846401000000008211156200151757600080fd5b838201915060208201858111156200152e57600080fd5b82518660208202830111640100000000821117156200154c57600080fd5b8083526020830192505050908051906020019060200280838360005b838110156200158557808201518184015260208101905062001568565b5050505090500160405250505083815181106200159e57fe5b602002602001015173ffffffffffffffffffffffffffffffffffffffff1663686690e66040518163ffffffff1660e01b815260040160006040518083038186803b158015620015ec57600080fd5b505afa15801562001601573d6000803e3d6000fd5b505050506040513d6000823e3d601f19601f8201168201806040525060208110156200162c57600080fd5b81019080805160405193929190846401000000008211156200164d57600080fd5b838201915060208201858111156200166457600080fd5b82518660018202830111640100000000821117156200168257600080fd5b8083526020830192505050908051906020019080838360005b83811015620016b85780820151818401526020810190506200169b565b50505050905090810190601f168015620016e65780820380516001836020036101000a031916815260200191505b50604052505050600160009054906101000a900473ffffffffffffffffffffffffffffffffffffffff1673ffffffffffffffffffffffffffffffffffffffff1663c29b2f206040518163ffffffff1660e01b815260040160006040518083038186803b1580156200175657600080fd5b505afa1580156200176b573d6000803e3d6000fd5b505050506040513d6000823e3d601f19601f8201168201806040525060208110156200179657600080fd5b8101908080516040519392919084640100000000821115620017b757600080fd5b83820191506020820185811115620017ce57600080fd5b8251866020820283011164010000000082111715620017ec57600080fd5b8083526020830192505050908051906020019060200280838360005b838110156200182557808201518184015260208101905062001808565b5050505090500160405250505084815181106200183e57fe5b602002602001015173ffffffffffffffffffffffffffffffffffffffff166383920e906040518163ffffffff1660e01b815260040160206040518083038186803b1580156200188c57600080fd5b505afa158015620018a1573d6000803e3d6000fd5b505050506040513d6020811015620018b857600080fd5b8101908080519060200190929190505050600160009054906101000a900473ffffffffffffffffffffffffffffffffffffffff1673ffffffffffffffffffffffffffffffffffffffff1663c29b2f206040518163ffffffff1660e01b815260040160006040518083038186803b1580156200193257600080fd5b505afa15801562001947573d6000803e3d6000fd5b505050506040513d6000823e3d601f19601f8201168201806040525060208110156200197257600080fd5b81019080805160405193929190846401000000008211156200199357600080fd5b83820191506020820185811115620019aa57600080fd5b8251866020820283011164010000000082111715620019c857600080fd5b8083526020830192505050908051906020019060200280838360005b8381101562001a01578082015181840152602081019050620019e4565b50505050905001604052505050858151811062001a1a57fe5b602002602001015173ffffffffffffffffffffffffffffffffffffffff166320af5a436040518163ffffffff1660e01b815260040160206040518083038186803b15801562001a6857600080fd5b505afa15801562001a7d573d6000803e3d6000fd5b505050506040513d602081101562001a9457600080fd5b8101908080519060200190929190505050600160009054906101000a900473ffffffffffffffffffffffffffffffffffffffff1673ffffffffffffffffffffffffffffffffffffffff1663c29b2f206040518163ffffffff1660e01b815260040160006040518083038186803b15801562001b0e57600080fd5b505afa15801562001b23573d6000803e3d6000fd5b505050506040513d6000823e3d601f19601f82011682018060405250602081101562001b4e57600080fd5b810190808051604051939291908464010000000082111562001b6f57600080fd5b8382019150602082018581111562001b8657600080fd5b825186602082028301116401000000008211171562001ba457600080fd5b8083526020830192505050908051906020019060200280838360005b8381101562001bdd57808201518184015260208101905062001bc0565b50505050905001604052505050868151811062001bf657fe5b602002602001015173ffffffffffffffffffffffffffffffffffffffff1663a5985e8c6040518163ffffffff1660e01b815260040160206040518083038186803b15801562001c4457600080fd5b505afa15801562001c59573d6000803e3d6000fd5b505050506040513d602081101562001c7057600080fd5b81019080805190602001909291905050509650965096509650965096505091939550919395565b60008060009054906101000a900473ffffffffffffffffffffffffffffffffffffffff1673ffffffffffffffffffffffffffffffffffffffff163373ffffffffffffffffffffffffffffffffffffffff161462001d40576040517f08c379a00000000000000000000000000000000000000000000000000000000081526004018080602001828103825260328152602001806200407d6032913960400191505060405180910390fd5b600160009054906101000a900473ffffffffffffffffffffffffffffffffffffffff16905090565b6000809054906101000a900473ffffffffffffffffffffffffffffffffffffffff1673ffffffffffffffffffffffffffffffffffffffff163373ffffffffffffffffffffffffffffffffffffffff161462001e0f576040517f08c379a00000000000000000000000000000000000000000000000000000000081526004018080602001828103825260328152602001806200407d6032913960400191505060405180910390fd5b80600260006101000a81548173ffffffffffffffffffffffffffffffffffffffff021916908373ffffffffffffffffffffffffffffffffffffffff16021790555050565b60606040518060400160405280600481526020017f484f4c4100000000000000000000000000000000000000000000000000000000815250905090565b600080600160009054906101000a900473ffffffffffffffffffffffffffffffffffffffff1673ffffffffffffffffffffffffffffffffffffffff1663aa232d25846040518263ffffffff1660e01b8152600401808273ffffffffffffffffffffffffffffffffffffffff1673ffffffffffffffffffffffffffffffffffffffff16815260200191505060206040518083038186803b15801562001f3357600080fd5b505afa15801562001f48573d6000803e3d6000fd5b505050506040513d602081101562001f5f57600080fd5b81019080805190602001909291905050509050600260009054906101000a900473ffffffffffffffffffffffffffffffffffffffff1673ffffffffffffffffffffffffffffffffffffffff1663c41a360a826040518263ffffffff1660e01b81526004018082815260200191505060206040518083038186803b15801562001fe657600080fd5b505afa15801562001ffb573d6000803e3d6000fd5b505050506040513d60208110156200201257600080fd5b8101908080519060200190929190505050915050919050565b6000600260009054906101000a900473ffffffffffffffffffffffffffffffffffffffff1673ffffffffffffffffffffffffffffffffffffffff166370a08231836040518263ffffffff1660e01b8152600401808273ffffffffffffffffffffffffffffffffffffffff1673ffffffffffffffffffffffffffffffffffffffff16815260200191505060206040518083038186803b158015620020cd57600080fd5b505afa158015620020e2573d6000803e3d6000fd5b505050506040513d6020811015620020f957600080fd5b81019080805190602001909291905050509050919050565b6000600160009054906101000a900473ffffffffffffffffffffffffffffffffffffffff1673ffffffffffffffffffffffffffffffffffffffff1663aa232d25836040518263ffffffff1660e01b8152600401808273ffffffffffffffffffffffffffffffffffffffff1673ffffffffffffffffffffffffffffffffffffffff16815260200191505060206040518083038186803b158015620021b357600080fd5b505afa158015620021c8573d6000803e3d6000fd5b505050506040513d6020811015620021df57600080fd5b81019080805190602001909291905050509050600260009054906101000a900473ffffffffffffffffffffffffffffffffffffffff1673ffffffffffffffffffffffffffffffffffffffff1663f5537ede3385846040518463ffffffff1660e01b8152600401808473ffffffffffffffffffffffffffffffffffffffff1673ffffffffffffffffffffffffffffffffffffffff1681526020018373ffffffffffffffffffffffffffffffffffffffff1673ffffffffffffffffffffffffffffffffffffffff1681526020018281526020019350505050600060405180830381600087803b158015620022d057600080fd5b505af1158015620022e5573d6000803e3d6000fd5b50505050600160009054906101000a900473ffffffffffffffffffffffffffffffffffffffff1673ffffffffffffffffffffffffffffffffffffffff1663c29b2f206040518163ffffffff1660e01b815260040160006040518083038186803b1580156200235257600080fd5b505afa15801562002367573d6000803e3d6000fd5b505050506040513d6000823e3d601f19601f8201168201806040525060208110156200239257600080fd5b8101908080516040519392919084640100000000821115620023b357600080fd5b83820191506020820185811115620023ca57600080fd5b8251866020820283011164010000000082111715620023e857600080fd5b8083526020830192505050908051906020019060200280838360005b838110156200242157808201518184015260208101905062002404565b5050505090500160405250505081815181106200243a57fe5b602002602001015173ffffffffffffffffffffffffffffffffffffffff16634b00126e846040518263ffffffff1660e01b8152600401808273ffffffffffffffffffffffffffffffffffffffff1673ffffffffffffffffffffffffffffffffffffffff168152602001915050600060405180830381600087803b158015620024c157600080fd5b505af1158015620024d6573d6000803e3d6000fd5b505050507f4ba388e46e4626d80c26580427fc6c31cf3dfaf466e7bcf58149a39be666b4a8338484604051808473ffffffffffffffffffffffffffffffffffffffff1673ffffffffffffffffffffffffffffffffffffffff1681526020018373ffffffffffffffffffffffffffffffffffffffff1673ffffffffffffffffffffffffffffffffffffffff1681526020018273ffffffffffffffffffffffffffffffffffffffff1673ffffffffffffffffffffffffffffffffffffffff168152602001935050505060405180910390a1505050565b6000809054906101000a900473ffffffffffffffffffffffffffffffffffffffff1681565b6060600160009054906101000a900473ffffffffffffffffffffffffffffffffffffffff1673ffffffffffffffffffffffffffffffffffffffff1663c29b2f206040518163ffffffff1660e01b815260040160006040518083038186803b1580156200263a57600080fd5b505afa1580156200264f573d6000803e3d6000fd5b505050506040513d6000823e3d601f19601f8201168201806040525060208110156200267a57600080fd5b81019080805160405193929190846401000000008211156200269b57600080fd5b83820191506020820185811115620026b257600080fd5b8251866020820283011164010000000082111715620026d057600080fd5b8083526020830192505050908051906020019060200280838360005b8381101562002709578082015181840152602081019050620026ec565b50505050905001604052505050905090565b6000809054906101000a900473ffffffffffffffffffffffffffffffffffffffff1673ffffffffffffffffffffffffffffffffffffffff163373ffffffffffffffffffffffffffffffffffffffff1614620027c2576040517f08c379a00000000000000000000000000000000000000000000000000000000081526004018080602001828103825260328152602001806200407d6032913960400191505060405180910390fd5b6000600160009054906101000a900473ffffffffffffffffffffffffffffffffffffffff1673ffffffffffffffffffffffffffffffffffffffff1663aa232d25836040518263ffffffff1660e01b8152600401808273ffffffffffffffffffffffffffffffffffffffff1673ffffffffffffffffffffffffffffffffffffffff16815260200191505060206040518083038186803b1580156200286457600080fd5b505afa15801562002879573d6000803e3d6000fd5b505050506040513d60208110156200289057600080fd5b81019080805190602001909291905050509050600260009054906101000a900473ffffffffffffffffffffffffffffffffffffffff1673ffffffffffffffffffffffffffffffffffffffff1663f5537ede8585846040518463ffffffff1660e01b8152600401808473ffffffffffffffffffffffffffffffffffffffff1673ffffffffffffffffffffffffffffffffffffffff1681526020018373ffffffffffffffffffffffffffffffffffffffff1673ffffffffffffffffffffffffffffffffffffffff1681526020018281526020019350505050600060405180830381600087803b1580156200298157600080fd5b505af115801562002996573d6000803e3d6000fd5b5050505050505050565b60008060009054906101000a900473ffffffffffffffffffffffffffffffffffffffff1673ffffffffffffffffffffffffffffffffffffffff163373ffffffffffffffffffffffffffffffffffffffff161462002a49576040517f08c379a00000000000000000000000000000000000000000000000000000000081526004018080602001828103825260328152602001806200407d6032913960400191505060405180910390fd5b600260009054906101000a900473ffffffffffffffffffffffffffffffffffffffff16905090565b6000838383600360009054906101000a900473ffffffffffffffffffffffffffffffffffffffff1660405162002aa7906200347c565b808060200180602001806020018573ffffffffffffffffffffffffffffffffffffffff1673ffffffffffffffffffffffffffffffffffffffff168152602001848103845288818151815260200191508051906020019080838360005b8381101562002b2057808201518184015260208101905062002b03565b50505050905090810190601f16801562002b4e5780820380516001836020036101000a031916815260200191505b50848103835287818151815260200191508051906020019080838360005b8381101562002b8957808201518184015260208101905062002b6c565b50505050905090810190601f16801562002bb75780820380516001836020036101000a031916815260200191505b50848103825286818151815260200191508051906020019080838360005b8381101562002bf257808201518184015260208101905062002bd5565b50505050905090810190601f16801562002c205780820380516001836020036101000a031916815260200191505b50975050505050505050604051809103906000f08015801562002c47573d6000803e3d6000fd5b5090506000600160009054906101000a900473ffffffffffffffffffffffffffffffffffffffff1673ffffffffffffffffffffffffffffffffffffffff1663c29b2f206040518163ffffffff1660e01b815260040160006040518083038186803b15801562002cb557600080fd5b505afa15801562002cca573d6000803e3d6000fd5b505050506040513d6000823e3d601f19601f82011682018060405250602081101562002cf557600080fd5b810190808051604051939291908464010000000082111562002d1657600080fd5b8382019150602082018581111562002d2d57600080fd5b825186602082028301116401000000008211171562002d4b57600080fd5b8083526020830192505050908051906020019060200280838360005b8381101562002d8457808201518184015260208101905062002d67565b50505050905001604052505050519050600160009054906101000a900473ffffffffffffffffffffffffffffffffffffffff1673ffffffffffffffffffffffffffffffffffffffff1663786962bd836040518263ffffffff1660e01b8152600401808273ffffffffffffffffffffffffffffffffffffffff1673ffffffffffffffffffffffffffffffffffffffff168152602001915050600060405180830381600087803b15801562002e3657600080fd5b505af115801562002e4b573d6000803e3d6000fd5b50505050600160009054906101000a900473ffffffffffffffffffffffffffffffffffffffff1673ffffffffffffffffffffffffffffffffffffffff16633a2f96018373ffffffffffffffffffffffffffffffffffffffff166338cc48316040518163ffffffff1660e01b815260040160206040518083038186803b15801562002ed457600080fd5b505afa15801562002ee9573d6000803e3d6000fd5b505050506040513d602081101562002f0057600080fd5b8101908080519060200190929190505050836040518363ffffffff1660e01b8152600401808373ffffffffffffffffffffffffffffffffffffffff1673ffffffffffffffffffffffffffffffffffffffff16815260200182815260200192505050600060405180830381600087803b15801562002f7c57600080fd5b505af115801562002f91573d6000803e3d6000fd5b50505050600260009054906101000a900473ffffffffffffffffffffffffffffffffffffffff1673ffffffffffffffffffffffffffffffffffffffff166340c10f1933836040518363ffffffff1660e01b8152600401808373ffffffffffffffffffffffffffffffffffffffff1673ffffffffffffffffffffffffffffffffffffffff16815260200182815260200192505050600060405180830381600087803b1580156200303f57600080fd5b505af115801562003054573d6000803e3d6000fd5b505050507f23853be392cc465c6ecc4655d18f713302eccb495466eeea106081ddc805bd90338487876000806000604051808873ffffffffffffffffffffffffffffffffffffffff1673ffffffffffffffffffffffffffffffffffffffff1681526020018060200180602001806020018781526020018681526020018560ff16815260200184810384528a818151815260200191508051906020019080838360005b8381101562003113578082015181840152602081019050620030f6565b50505050905090810190601f168015620031415780820380516001836020036101000a031916815260200191505b50848103835289818151815260200191508051906020019080838360005b838110156200317c5780820151818401526020810190506200315f565b50505050905090810190601f168015620031aa5780820380516001836020036101000a031916815260200191505b50848103825288818151815260200191508051906020019080838360005b83811015620031e5578082015181840152602081019050620031c8565b50505050905090810190601f168015620032135780820380516001836020036101000a031916815260200191505b509a505050505050505050505060405180910390a15050505050565b6000600260009054906101000a900473ffffffffffffffffffffffffffffffffffffffff1673ffffffffffffffffffffffffffffffffffffffff16637e1c0c096040518163ffffffff1660e01b815260040160206040518083038186803b1580156200329a57600080fd5b505afa158015620032af573d6000803e3d6000fd5b505050506040513d6020811015620032c657600080fd5b8101908080519060200190929190505050905090565b6000809054906101000a900473ffffffffffffffffffffffffffffffffffffffff1673ffffffffffffffffffffffffffffffffffffffff163373ffffffffffffffffffffffffffffffffffffffff161462003383576040517f08c379a00000000000000000000000000000000000000000000000000000000081526004018080602001828103825260328152602001806200407d6032913960400191505060405180910390fd5b600073ffffffffffffffffffffffffffffffffffffffff168173ffffffffffffffffffffffffffffffffffffffff161415620033be57600080fd5b8073ffffffffffffffffffffffffffffffffffffffff166000809054906101000a900473ffffffffffffffffffffffffffffffffffffffff1673ffffffffffffffffffffffffffffffffffffffff167f8be0079c531659141344cd1fd0a4f28419497f9722a3daafe3b4186f6b6457e060405160405180910390a3806000806101000a81548173ffffffffffffffffffffffffffffffffffffffff021916908373ffffffffffffffffffffffffffffffffffffffff16021790555050565b610bf2806200348b8339019056fe60806040523480156200001157600080fd5b5060405162000bf238038062000bf2833981810160405260808110156200003757600080fd5b81019080805160405193929190846401000000008211156200005857600080fd5b838201915060208201858111156200006f57600080fd5b82518660018202830111640100000000821117156200008d57600080fd5b8083526020830192505050908051906020019080838360005b83811015620000c3578082015181840152602081019050620000a6565b50505050905090810190601f168015620000f15780820380516001836020036101000a031916815260200191505b50604052602001805160405193929190846401000000008211156200011557600080fd5b838201915060208201858111156200012c57600080fd5b82518660018202830111640100000000821117156200014a57600080fd5b8083526020830192505050908051906020019080838360005b838110156200018057808201518184015260208101905062000163565b50505050905090810190601f168015620001ae5780820380516001836020036101000a031916815260200191505b5060405260200180516040519392919084640100000000821115620001d257600080fd5b83820191506020820185811115620001e957600080fd5b82518660018202830111640100000000821117156200020757600080fd5b8083526020830192505050908051906020019080838360005b838110156200023d57808201518184015260208101905062000220565b50505050905090810190601f1680156200026b5780820380516001836020036101000a031916815260200191505b506040526020018051906020019092919050505083600090805190602001906200029792919062000341565b508260019080519060200190620002b092919062000341565b5060006002819055506000600460006101000a81548160ff021916908360ff1602179055508160059080519060200190620002ed92919062000341565b50600060038190555080600660006101000a81548173ffffffffffffffffffffffffffffffffffffffff021916908373ffffffffffffffffffffffffffffffffffffffff16021790555050505050620003f0565b828054600181600116156101000203166002900490600052602060002090601f016020900481019282601f106200038457805160ff1916838001178555620003b5565b82800160010185558215620003b5579182015b82811115620003b457825182559160200191906001019062000397565b5b509050620003c49190620003c8565b5090565b620003ed91905b80821115620003e9576000816000905550600101620003cf565b5090565b90565b6107f280620004006000396000f3fe608060405234801561001057600080fd5b50600436106100b45760003560e01c806383920e901161007157806383920e901461029957806384dc0782146102b75780638b18c7e3146102fb5780638dd743de14610345578063a5985e8c146103c8578063bd5546be146103ec576100b4565b806317d7de7c146100b957806320af5a431461013c57806338cc48311461015a5780633dbe3854146101a45780634b00126e146101d2578063686690e614610216575b600080fd5b6100c161041d565b6040518080602001828103825283818151815260200191508051906020019080838360005b838110156101015780820151818401526020810190506100e6565b50505050905090810190601f16801561012e5780820380516001836020036101000a031916815260200191505b509250505060405180910390f35b6101446104bf565b6040518082815260200191505060405180910390f35b6101626104c9565b604051808273ffffffffffffffffffffffffffffffffffffffff1673ffffffffffffffffffffffffffffffffffffffff16815260200191505060405180910390f35b6101d0600480360360208110156101ba57600080fd5b81019080803590602001909291905050506104d1565b005b610214600480360360208110156101e857600080fd5b81019080803573ffffffffffffffffffffffffffffffffffffffff1690602001909291905050506104db565b005b61021e6105cb565b6040518080602001828103825283818151815260200191508051906020019080838360005b8381101561025e578082015181840152602081019050610243565b50505050905090810190601f16801561028b5780820380516001836020036101000a031916815260200191505b509250505060405180910390f35b6102a161066d565b6040518082815260200191505060405180910390f35b6102f9600480360360208110156102cd57600080fd5b81019080803573ffffffffffffffffffffffffffffffffffffffff169060200190929190505050610677565b005b6103036106bb565b604051808273ffffffffffffffffffffffffffffffffffffffff1673ffffffffffffffffffffffffffffffffffffffff16815260200191505060405180910390f35b61034d6106e5565b6040518080602001828103825283818151815260200191508051906020019080838360005b8381101561038d578082015181840152602081019050610372565b50505050905090810190601f1680156103ba5780820380516001836020036101000a031916815260200191505b509250505060405180910390f35b6103d0610787565b604051808260ff1660ff16815260200191505060405180910390f35b61041b6004803603602081101561040257600080fd5b81019080803560ff16906020019092919050505061079e565b005b606060058054600181600116156101000203166002900480601f0160208091040260200160405190810160405280929190818152602001828054600181600116156101000203166002900480156104b55780601f1061048a576101008083540402835291602001916104b5565b820191906000526020600020905b81548152906001019060200180831161049857829003601f168201915b5050505050905090565b6000600354905090565b600030905090565b8060038190555050565b600660009054906101000a900473ffffffffffffffffffffffffffffffffffffffff1673ffffffffffffffffffffffffffffffffffffffff1663e2ae5bab30836040518363ffffffff1660e01b8152600401808373ffffffffffffffffffffffffffffffffffffffff1673ffffffffffffffffffffffffffffffffffffffff1681526020018273ffffffffffffffffffffffffffffffffffffffff1673ffffffffffffffffffffffffffffffffffffffff16815260200192505050600060405180830381600087803b1580156105b057600080fd5b505af11580156105c4573d6000803e3d6000fd5b5050505050565b606060018054600181600116156101000203166002900480601f0160208091040260200160405190810160405280929190818152602001828054600181600116156101000203166002900480156106635780601f1061063857610100808354040283529160200191610663565b820191906000526020600020905b81548152906001019060200180831161064657829003601f168201915b5050505050905090565b6000600254905090565b80600660006101000a81548173ffffffffffffffffffffffffffffffffffffffff021916908373ffffffffffffffffffffffffffffffffffffffff16021790555050565b6000600660009054906101000a900473ffffffffffffffffffffffffffffffffffffffff16905090565b606060008054600181600116156101000203166002900480601f01602080910402602001604051908101604052809291908181526020018280546001816001161561010002031660029004801561077d5780601f106107525761010080835404028352916020019161077d565b820191906000526020600020905b81548152906001019060200180831161076057829003601f168201915b5050505050905090565b6000600460009054906101000a900460ff16905090565b80600460006101000a81548160ff021916908360ff1602179055505056fea264697066735822122071d9b4e198126f8edfef401c5713cded78ae8458cf12e8cf58fa00b8c0b37ec264736f6c6343000603003346756e63696f6e20726573657276616461207061726120656c2070726f706965746172696f2064656c2070726f647563746fa2646970667358221220d4b61e3a77997c7c84fb4493da82eee6ad8fbd60356a0a7d991cca0761e9887664736f6c6343000603003360806040523480156200001157600080fd5b506040518060400160405280601081526020017f53746f636b205a2050726f6475637473000000000000000000000000000000008152506040518060400160405280600381526020017f535a500000000000000000000000000000000000000000000000000000000000815250620000966301ffc9a760e01b6200011860201b60201c565b8160069080519060200190620000ae92919062000221565b508060079080519060200190620000c792919062000221565b50620000e06380ac58cd60e01b6200011860201b60201c565b620000f8635b5e139f60e01b6200011860201b60201c565b6200011063780e9d6360e01b6200011860201b60201c565b5050620002d0565b63ffffffff60e01b817bffffffffffffffffffffffffffffffffffffffffffffffffffffffff19161415620001b5576040517f08c379a000000000000000000000000000000000000000000000000000000000815260040180806020018281038252601c8152602001807f4552433136353a20696e76616c696420696e746572666163652069640000000081525060200191505060405180910390fd5b6001600080837bffffffffffffffffffffffffffffffffffffffffffffffffffffffff19167bffffffffffffffffffffffffffffffffffffffffffffffffffffffff1916815260200190815260200160002060006101000a81548160ff02191690831515021790555050565b828054600181600116156101000203166002900490600052602060002090601f016020900481019282601f106200026457805160ff191683800117855562000295565b8280016001018555821562000295579182015b828111156200029457825182559160200191906001019062000277565b5b509050620002a49190620002a8565b5090565b620002cd91905b80821115620002c9576000816000905550600101620002af565b5090565b90565b612ad180620002e06000396000f3fe608060405234801561001057600080fd5b50600436106101375760003560e01c80636352211e116100b8578063a22cb4651161007c578063a22cb465146106b6578063b88d4fde14610706578063c41a360a1461080b578063c87b56dd14610879578063e985e9c514610920578063f5537ede1461099c57610137565b80636352211e146104cc5780636c0360eb1461053a57806370a08231146105bd5780637e1c0c091461061557806395d89b411461063357610137565b806323b872dd116100ff57806323b872dd146102fe5780632f745c591461036c57806340c10f19146103ce57806342842e0e1461041c5780634f6ccce71461048a57610137565b806301ffc9a71461013c57806306fdde03146101a1578063081812fc14610224578063095ea7b31461029257806318160ddd146102e0575b600080fd5b6101876004803603602081101561015257600080fd5b8101908080357bffffffffffffffffffffffffffffffffffffffffffffffffffffffff19169060200190929190505050610a0a565b604051808215151515815260200191505060405180910390f35b6101a9610a71565b6040518080602001828103825283818151815260200191508051906020019080838360005b838110156101e95780820151818401526020810190506101ce565b50505050905090810190601f1680156102165780820380516001836020036101000a031916815260200191505b509250505060405180910390f35b6102506004803603602081101561023a57600080fd5b8101908080359060200190929190505050610b13565b604051808273ffffffffffffffffffffffffffffffffffffffff1673ffffffffffffffffffffffffffffffffffffffff16815260200191505060405180910390f35b6102de600480360360408110156102a857600080fd5b81019080803573ffffffffffffffffffffffffffffffffffffffff16906020019092919080359060200190929190505050610bae565b005b6102e8610cf2565b6040518082815260200191505060405180910390f35b61036a6004803603606081101561031457600080fd5b81019080803573ffffffffffffffffffffffffffffffffffffffff169060200190929190803573ffffffffffffffffffffffffffffffffffffffff16906020019092919080359060200190929190505050610d03565b005b6103b86004803603604081101561038257600080fd5b81019080803573ffffffffffffffffffffffffffffffffffffffff16906020019092919080359060200190929190505050610d79565b6040518082815260200191505060405180910390f35b61041a600480360360408110156103e457600080fd5b81019080803573ffffffffffffffffffffffffffffffffffffffff16906020019092919080359060200190929190505050610dd4565b005b6104886004803603606081101561043257600080fd5b81019080803573ffffffffffffffffffffffffffffffffffffffff169060200190929190803573ffffffffffffffffffffffffffffffffffffffff16906020019092919080359060200190929190505050610de2565b005b6104b6600480360360208110156104a057600080fd5b8101908080359060200190929190505050610e02565b6040518082815260200191505060405180910390f35b6104f8600480360360208110156104e257600080fd5b8101908080359060200190929190505050610e25565b604051808273ffffffffffffffffffffffffffffffffffffffff1673ffffffffffffffffffffffffffffffffffffffff16815260200191505060405180910390f35b610542610e5c565b6040518080602001828103825283818151815260200191508051906020019080838360005b83811015610582578082015181840152602081019050610567565b50505050905090810190601f1680156105af5780820380516001836020036101000a031916815260200191505b509250505060405180910390f35b6105ff600480360360208110156105d357600080fd5b81019080803573ffffffffffffffffffffffffffffffffffffffff169060200190929190505050610efe565b6040518082815260200191505060405180910390f35b61061d610fd3565b6040518082815260200191505060405180910390f35b61063b610fe2565b6040518080602001828103825283818151815260200191508051906020019080838360005b8381101561067b578082015181840152602081019050610660565b50505050905090810190601f1680156106a85780820380516001836020036101000a031916815260200191505b509250505060405180910390f35b610704600480360360408110156106cc57600080fd5b81019080803573ffffffffffffffffffffffffffffffffffffffff169060200190929190803515159060200190929190505050611084565b005b6108096004803603608081101561071c57600080fd5b81019080803573ffffffffffffffffffffffffffffffffffffffff169060200190929190803573ffffffffffffffffffffffffffffffffffffffff169060200190929190803590602001909291908035906020019064010000000081111561078357600080fd5b82018360208201111561079557600080fd5b803590602001918460018302840111640100000000831117156107b757600080fd5b91908080601f016020809104026020016040519081016040528093929190818152602001838380828437600081840152601f19601f82011690508083019250505050505050919291929050505061123c565b005b6108376004803603602081101561082157600080fd5b81019080803590602001909291905050506112b4565b604051808273ffffffffffffffffffffffffffffffffffffffff1673ffffffffffffffffffffffffffffffffffffffff16815260200191505060405180910390f35b6108a56004803603602081101561088f57600080fd5b81019080803590602001909291905050506112c6565b6040518080602001828103825283818151815260200191508051906020019080838360005b838110156108e55780820151818401526020810190506108ca565b50505050905090810190601f1680156109125780820380516001836020036101000a031916815260200191505b509250505060405180910390f35b6109826004803603604081101561093657600080fd5b81019080803573ffffffffffffffffffffffffffffffffffffffff169060200190929190803573ffffffffffffffffffffffffffffffffffffffff1690602001909291905050506115af565b604051808215151515815260200191505060405180910390f35b610a08600480360360608110156109b257600080fd5b81019080803573ffffffffffffffffffffffffffffffffffffffff169060200190929190803573ffffffffffffffffffffffffffffffffffffffff16906020019092919080359060200190929190505050611643565b005b6000806000837bffffffffffffffffffffffffffffffffffffffffffffffffffffffff19167bffffffffffffffffffffffffffffffffffffffffffffffffffffffff1916815260200190815260200160002060009054906101000a900460ff169050919050565b606060068054600181600116156101000203166002900480601f016020809104026020016040519081016040528092919081815260200182805460018160011615610100020316600290048015610b095780601f10610ade57610100808354040283529160200191610b09565b820191906000526020600020905b815481529060010190602001808311610aec57829003601f168201915b5050505050905090565b6000610b1e82611653565b610b73576040517f08c379a000000000000000000000000000000000000000000000000000000000815260040180806020018281038252602c8152602001806129c6602c913960400191505060405180910390fd5b6004600083815260200190815260200160002060009054906101000a900473ffffffffffffffffffffffffffffffffffffffff169050919050565b6000610bb982610e25565b90508073ffffffffffffffffffffffffffffffffffffffff168373ffffffffffffffffffffffffffffffffffffffff161415610c40576040517f08c379a0000000000000000000000000000000000000000000000000000000008152600401808060200182810382526021815260200180612a4a6021913960400191505060405180910390fd5b8073ffffffffffffffffffffffffffffffffffffffff16610c5f611670565b73ffffffffffffffffffffffffffffffffffffffff161480610c8e5750610c8d81610c88611670565b6115af565b5b610ce3576040517f08c379a00000000000000000000000000000000000000000000000000000000081526004018080602001828103825260388152602001806129196038913960400191505060405180910390fd5b610ced8383611678565b505050565b6000610cfe6002611731565b905090565b610d14610d0e611670565b82611746565b610d69576040517f08c379a0000000000000000000000000000000000000000000000000000000008152600401808060200182810382526031815260200180612a6b6031913960400191505060405180910390fd5b610d7483838361183a565b505050565b6000610dcc82600160008673ffffffffffffffffffffffffffffffffffffffff1673ffffffffffffffffffffffffffffffffffffffff168152602001908152602001600020611a7d90919063ffffffff16565b905092915050565b610dde8282611a97565b5050565b610dfd8383836040518060200160405280600081525061123c565b505050565b600080610e19836002611c8b90919063ffffffff16565b50905080915050919050565b6000610e558260405180606001604052806029815260200161297b602991396002611cba9092919063ffffffff16565b9050919050565b606060098054600181600116156101000203166002900480601f016020809104026020016040519081016040528092919081815260200182805460018160011615610100020316600290048015610ef45780601f10610ec957610100808354040283529160200191610ef4565b820191906000526020600020905b815481529060010190602001808311610ed757829003601f168201915b5050505050905090565b60008073ffffffffffffffffffffffffffffffffffffffff168273ffffffffffffffffffffffffffffffffffffffff161415610f85576040517f08c379a000000000000000000000000000000000000000000000000000000000815260040180806020018281038252602a815260200180612951602a913960400191505060405180910390fd5b610fcc600160008473ffffffffffffffffffffffffffffffffffffffff1673ffffffffffffffffffffffffffffffffffffffff168152602001908152602001600020611cd9565b9050919050565b6000610fdd610cf2565b905090565b606060078054600181600116156101000203166002900480601f01602080910402602001604051908101604052809291908181526020018280546001816001161561010002031660029004801561107a5780601f1061104f5761010080835404028352916020019161107a565b820191906000526020600020905b81548152906001019060200180831161105d57829003601f168201915b5050505050905090565b61108c611670565b73ffffffffffffffffffffffffffffffffffffffff168273ffffffffffffffffffffffffffffffffffffffff16141561112d576040517f08c379a00000000000000000000000000000000000000000000000000000000081526004018080602001828103825260198152602001807f4552433732313a20617070726f766520746f2063616c6c65720000000000000081525060200191505060405180910390fd5b806005600061113a611670565b73ffffffffffffffffffffffffffffffffffffffff1673ffffffffffffffffffffffffffffffffffffffff16815260200190815260200160002060008473ffffffffffffffffffffffffffffffffffffffff1673ffffffffffffffffffffffffffffffffffffffff16815260200190815260200160002060006101000a81548160ff0219169083151502179055508173ffffffffffffffffffffffffffffffffffffffff166111e7611670565b73ffffffffffffffffffffffffffffffffffffffff167f17307eab39ab6107e8899845ad3d59bd9653f200f220920489ca2b5937696c3183604051808215151515815260200191505060405180910390a35050565b61124d611247611670565b83611746565b6112a2576040517f08c379a0000000000000000000000000000000000000000000000000000000008152600401808060200182810382526031815260200180612a6b6031913960400191505060405180910390fd5b6112ae84848484611cee565b50505050565b60006112bf82610e25565b9050919050565b60606112d182611653565b611326576040517f08c379a000000000000000000000000000000000000000000000000000000000815260040180806020018281038252602f815260200180612a1b602f913960400191505060405180910390fd5b6060600860008481526020019081526020016000208054600181600116156101000203166002900480601f0160208091040260200160405190810160405280929190818152602001828054600181600116156101000203166002900480156113cf5780601f106113a4576101008083540402835291602001916113cf565b820191906000526020600020905b8154815290600101906020018083116113b257829003601f168201915b505050505090506000600980546001816001161561010002031660029004905014156113fe57809150506115aa565b6000815111156114d75760098160405160200180838054600181600116156101000203166002900480156114695780601f10611447576101008083540402835291820191611469565b820191906000526020600020905b815481529060010190602001808311611455575b505082805190602001908083835b6020831061149a5780518252602082019150602081019050602083039250611477565b6001836020036101000a038019825116818451168082178552505050505050905001925050506040516020818303038152906040529150506115aa565b60096114e284611d60565b60405160200180838054600181600116156101000203166002900480156115405780601f1061151e576101008083540402835291820191611540565b820191906000526020600020905b81548152906001019060200180831161152c575b505082805190602001908083835b60208310611571578051825260208201915060208101905060208303925061154e565b6001836020036101000a038019825116818451168082178552505050505050905001925050506040516020818303038152906040529150505b919050565b6000600560008473ffffffffffffffffffffffffffffffffffffffff1673ffffffffffffffffffffffffffffffffffffffff16815260200190815260200160002060008373ffffffffffffffffffffffffffffffffffffffff1673ffffffffffffffffffffffffffffffffffffffff16815260200190815260200160002060009054906101000a900460ff16905092915050565b61164e83838361183a565b505050565b6000611669826002611e9090919063ffffffff16565b9050919050565b600033905090565b816004600083815260200190815260200160002060006101000a81548173ffffffffffffffffffffffffffffffffffffffff021916908373ffffffffffffffffffffffffffffffffffffffff160217905550808273ffffffffffffffffffffffffffffffffffffffff166116eb83610e25565b73ffffffffffffffffffffffffffffffffffffffff167f8c5be1e5ebec7d5bd14f71427d1e84f3dd0314c0f7b2291e5b200ac8c7c3b92560405160405180910390a45050565b600061173f82600001611eaa565b9050919050565b600061175182611653565b6117a6576040517f08c379a000000000000000000000000000000000000000000000000000000000815260040180806020018281038252602c8152602001806128ed602c913960400191505060405180910390fd5b60006117b183610e25565b90508073ffffffffffffffffffffffffffffffffffffffff168473ffffffffffffffffffffffffffffffffffffffff16148061182057508373ffffffffffffffffffffffffffffffffffffffff1661180884610b13565b73ffffffffffffffffffffffffffffffffffffffff16145b80611831575061183081856115af565b5b91505092915050565b8273ffffffffffffffffffffffffffffffffffffffff1661185a82610e25565b73ffffffffffffffffffffffffffffffffffffffff16146118c6576040517f08c379a00000000000000000000000000000000000000000000000000000000081526004018080602001828103825260298152602001806129f26029913960400191505060405180910390fd5b600073ffffffffffffffffffffffffffffffffffffffff168273ffffffffffffffffffffffffffffffffffffffff16141561194c576040517f08c379a00000000000000000000000000000000000000000000000000000000081526004018080602001828103825260248152602001806128c96024913960400191505060405180910390fd5b611957838383611ebb565b611962600082611678565b6119b381600160008673ffffffffffffffffffffffffffffffffffffffff1673ffffffffffffffffffffffffffffffffffffffff168152602001908152602001600020611ec090919063ffffffff16565b50611a0581600160008573ffffffffffffffffffffffffffffffffffffffff1673ffffffffffffffffffffffffffffffffffffffff168152602001908152602001600020611eda90919063ffffffff16565b50611a1c81836002611ef49092919063ffffffff16565b50808273ffffffffffffffffffffffffffffffffffffffff168473ffffffffffffffffffffffffffffffffffffffff167fddf252ad1be2c89b69c2b068fc378daa952ba7f163c4a11628f55a4df523b3ef60405160405180910390a4505050565b6000611a8c8360000183611f29565b60001c905092915050565b600073ffffffffffffffffffffffffffffffffffffffff168273ffffffffffffffffffffffffffffffffffffffff161415611b3a576040517f08c379a00000000000000000000000000000000000000000000000000000000081526004018080602001828103825260208152602001807f4552433732313a206d696e7420746f20746865207a65726f206164647265737381525060200191505060405180910390fd5b611b4381611653565b15611bb6576040517f08c379a000000000000000000000000000000000000000000000000000000000815260040180806020018281038252601c8152602001807f4552433732313a20746f6b656e20616c7265616479206d696e7465640000000081525060200191505060405180910390fd5b611bc260008383611ebb565b611c1381600160008573ffffffffffffffffffffffffffffffffffffffff1673ffffffffffffffffffffffffffffffffffffffff168152602001908152602001600020611eda90919063ffffffff16565b50611c2a81836002611ef49092919063ffffffff16565b50808273ffffffffffffffffffffffffffffffffffffffff16600073ffffffffffffffffffffffffffffffffffffffff167fddf252ad1be2c89b69c2b068fc378daa952ba7f163c4a11628f55a4df523b3ef60405160405180910390a45050565b600080600080611c9e8660000186611fac565b915091508160001c8160001c8090509350935050509250929050565b6000611ccd846000018460001b84612045565b60001c90509392505050565b6000611ce78260000161213b565b9050919050565b611cf984848461183a565b611d058484848461214c565b611d5a576040517f08c379a00000000000000000000000000000000000000000000000000000000081526004018080602001828103825260328152602001806128976032913960400191505060405180910390fd5b50505050565b60606000821415611da8576040518060400160405280600181526020017f30000000000000000000000000000000000000000000000000000000000000008152509050611e8b565b600082905060005b60008214611dd2578080600101915050600a8281611dca57fe5b049150611db0565b6060816040519080825280601f01601f191660200182016040528015611e075781602001600182028036833780820191505090505b50905060006001830390508593505b60008414611e8357600a8481611e2857fe5b0660300160f81b82828060019003935081518110611e4257fe5b60200101907effffffffffffffffffffffffffffffffffffffffffffffffffffffffffffff1916908160001a905350600a8481611e7b57fe5b049350611e16565b819450505050505b919050565b6000611ea2836000018360001b612391565b905092915050565b600081600001805490509050919050565b505050565b6000611ed2836000018360001b6123b4565b905092915050565b6000611eec836000018360001b61249c565b905092915050565b6000611f20846000018460001b8473ffffffffffffffffffffffffffffffffffffffff1660001b61250c565b90509392505050565b600081836000018054905011611f8a576040517f08c379a00000000000000000000000000000000000000000000000000000000081526004018080602001828103825260228152602001806128756022913960400191505060405180910390fd5b826000018281548110611f9957fe5b9060005260206000200154905092915050565b6000808284600001805490501161200e576040517f08c379a00000000000000000000000000000000000000000000000000000000081526004018080602001828103825260228152602001806129a46022913960400191505060405180910390fd5b600084600001848154811061201f57fe5b906000526020600020906002020190508060000154816001015492509250509250929050565b6000808460010160008581526020019081526020016000205490506000811415839061210c576040517f08c379a00000000000000000000000000000000000000000000000000000000081526004018080602001828103825283818151815260200191508051906020019080838360005b838110156120d15780820151818401526020810190506120b6565b50505050905090810190601f1680156120fe5780820380516001836020036101000a031916815260200191505b509250505060405180910390fd5b5084600001600182038154811061211f57fe5b9060005260206000209060020201600101549150509392505050565b600081600001805490509050919050565b600061216d8473ffffffffffffffffffffffffffffffffffffffff166125e8565b61217a5760019050612389565b606061231063150b7a0260e01b61218f611670565b888787604051602401808573ffffffffffffffffffffffffffffffffffffffff1673ffffffffffffffffffffffffffffffffffffffff1681526020018473ffffffffffffffffffffffffffffffffffffffff1673ffffffffffffffffffffffffffffffffffffffff16815260200183815260200180602001828103825283818151815260200191508051906020019080838360005b8381101561223f578082015181840152602081019050612224565b50505050905090810190601f16801561226c5780820380516001836020036101000a031916815260200191505b5095505050505050604051602081830303815290604052907bffffffffffffffffffffffffffffffffffffffffffffffffffffffff19166020820180517bffffffffffffffffffffffffffffffffffffffffffffffffffffffff8381831617835250505050604051806060016040528060328152602001612897603291398773ffffffffffffffffffffffffffffffffffffffff166126339092919063ffffffff16565b9050600081806020019051602081101561232957600080fd5b8101908080519060200190929190505050905063150b7a0260e01b7bffffffffffffffffffffffffffffffffffffffffffffffffffffffff1916817bffffffffffffffffffffffffffffffffffffffffffffffffffffffff191614925050505b949350505050565b600080836001016000848152602001908152602001600020541415905092915050565b6000808360010160008481526020019081526020016000205490506000811461249057600060018203905060006001866000018054905003905060008660000182815481106123ff57fe5b906000526020600020015490508087600001848154811061241c57fe5b906000526020600020018190555060018301876001016000838152602001908152602001600020819055508660000180548061245457fe5b60019003818190600052602060002001600090559055866001016000878152602001908152602001600020600090556001945050505050612496565b60009150505b92915050565b60006124a8838361264b565b612501578260000182908060018154018082558091505060019003906000526020600020016000909190919091505582600001805490508360010160008481526020019081526020016000208190555060019050612506565b600090505b92915050565b60008084600101600085815260200190815260200160002054905060008114156125b3578460000160405180604001604052808681526020018581525090806001815401808255809150506001900390600052602060002090600202016000909190919091506000820151816000015560208201518160010155505084600001805490508560010160008681526020019081526020016000208190555060019150506125e1565b828560000160018303815481106125c657fe5b90600052602060002090600202016001018190555060009150505b9392505050565b60008060007fc5d2460186f7233c927e7db2dcc703c0e500b653ca82273b7bfad8045d85a47060001b9050833f915080821415801561262a57506000801b8214155b92505050919050565b6060612642848460008561266e565b90509392505050565b600080836001016000848152602001908152602001600020541415905092915050565b6060612679856125e8565b6126eb576040517f08c379a000000000000000000000000000000000000000000000000000000000815260040180806020018281038252601d8152602001807f416464726573733a2063616c6c20746f206e6f6e2d636f6e747261637400000081525060200191505060405180910390fd5b600060608673ffffffffffffffffffffffffffffffffffffffff1685876040518082805190602001908083835b6020831061273b5780518252602082019150602081019050602083039250612718565b6001836020036101000a03801982511681845116808217855250505050505090500191505060006040518083038185875af1925050503d806000811461279d576040519150601f19603f3d011682016040523d82523d6000602084013e6127a2565b606091505b509150915081156127b757809250505061286c565b6000815111156127ca5780518082602001fd5b836040517f08c379a00000000000000000000000000000000000000000000000000000000081526004018080602001828103825283818151815260200191508051906020019080838360005b83811015612831578082015181840152602081019050612816565b50505050905090810190601f16801561285e5780820380516001836020036101000a031916815260200191505b509250505060405180910390fd5b94935050505056fe456e756d657261626c655365743a20696e646578206f7574206f6620626f756e64734552433732313a207472616e7366657220746f206e6f6e20455243373231526563656976657220696d706c656d656e7465724552433732313a207472616e7366657220746f20746865207a65726f20616464726573734552433732313a206f70657261746f7220717565727920666f72206e6f6e6578697374656e7420746f6b656e4552433732313a20617070726f76652063616c6c6572206973206e6f74206f776e6572206e6f7220617070726f76656420666f7220616c6c4552433732313a2062616c616e636520717565727920666f7220746865207a65726f20616464726573734552433732313a206f776e657220717565727920666f72206e6f6e6578697374656e7420746f6b656e456e756d657261626c654d61703a20696e646578206f7574206f6620626f756e64734552433732313a20617070726f76656420717565727920666f72206e6f6e6578697374656e7420746f6b656e4552433732313a207472616e73666572206f6620746f6b656e2074686174206973206e6f74206f776e4552433732314d657461646174613a2055524920717565727920666f72206e6f6e6578697374656e7420746f6b656e4552433732313a20617070726f76616c20746f2063757272656e74206f776e65724552433732313a207472616e736665722063616c6c6572206973206e6f74206f776e6572206e6f7220617070726f766564a2646970667358221220ee166572155508647d58b11597ba9900b7a76f46eeb14ed8514acffcd76e5fba64736f6c63430006030033608060405234801561001057600080fd5b506105cb806100206000396000f3fe608060405234801561001057600080fd5b506004361061002b5760003560e01c8063e2ae5bab14610030575b600080fd5b6100926004803603604081101561004657600080fd5b81019080803573ffffffffffffffffffffffffffffffffffffffff169060200190929190803573ffffffffffffffffffffffffffffffffffffffff169060200190929190505050610094565b005b60008173ffffffffffffffffffffffffffffffffffffffff16905060008373ffffffffffffffffffffffffffffffffffffffff166320af5a436040518163ffffffff1660e01b815260040160206040518083038186803b1580156100f757600080fd5b505afa15801561010b573d6000803e3d6000fd5b505050506040513d602081101561012157600080fd5b81019080805190602001909291905050509050600061014983836101c590919063ffffffff16565b90508473ffffffffffffffffffffffffffffffffffffffff16633dbe38546101708361024d565b6040518263ffffffff1660e01b815260040180828152602001915050600060405180830381600087803b1580156101a657600080fd5b505af11580156101ba573d6000803e3d6000fd5b505050505050505050565b600080828401905083811015610243576040517f08c379a000000000000000000000000000000000000000000000000000000000815260040180806020018281038252601b8152602001807f536166654d6174683a206164646974696f6e206f766572666c6f77000000000081525060200191505060405180910390fd5b8091505092915050565b6000806000905060008090505b60048110156102c9576000610279600a866102d390919063ffffffff16565b905061028f600a8661031d90919063ffffffff16565b94506102b96102aa83600a0a8361036790919063ffffffff16565b846101c590919063ffffffff16565b925050808060010191505061025a565b5080915050919050565b600061031583836040518060400160405280601881526020017f536166654d6174683a206d6f64756c6f206279207a65726f00000000000000008152506103ed565b905092915050565b600061035f83836040518060400160405280601a81526020017f536166654d6174683a206469766973696f6e206279207a65726f0000000000008152506104ae565b905092915050565b60008083141561037a57600090506103e7565b600082840290508284828161038b57fe5b04146103e2576040517f08c379a00000000000000000000000000000000000000000000000000000000081526004018080602001828103825260218152602001806105756021913960400191505060405180910390fd5b809150505b92915050565b600080831415829061049a576040517f08c379a00000000000000000000000000000000000000000000000000000000081526004018080602001828103825283818151815260200191508051906020019080838360005b8381101561045f578082015181840152602081019050610444565b50505050905090810190601f16801561048c5780820380516001836020036101000a031916815260200191505b509250505060405180910390fd5b508284816104a457fe5b0690509392505050565b6000808311829061055a576040517f08c379a00000000000000000000000000000000000000000000000000000000081526004018080602001828103825283818151815260200191508051906020019080838360005b8381101561051f578082015181840152602081019050610504565b50505050905090810190601f16801561054c5780820380516001836020036101000a031916815260200191505b509250505060405180910390fd5b50600083858161056657fe5b04905080915050939250505056fe536166654d6174683a206d756c7469706c69636174696f6e206f766572666c6f77a2646970667358221220658fa09ed94bdb78492df9037936643b0ea6602717f9b738f59f7f0e07d5dc3464736f6c63430006030033",
  "source": "//SPDX-License-Identifier: None\n// solium-disable linebreak-style\npragma solidity >=0.4.21;\nimport \"./ProductLogic.sol\";\nimport \"./ProductToken.sol\";\n\nimport \"./StockZStorage.sol\";\nimport \"./Ownable.sol\";\nimport \"./Product.sol\";\n\n\ncontract CryptoStockZ is Ownable {\n    \n    //constructor() ERC721(\"Stock Z Products\", \"SZP\") public{}\n    StockZStorage stockZStorage;// = new StockZStorage(msg.sender);  // Creamos el storage 1.0\n    ProductToken productToken = new ProductToken();\n    address productLogic = address(new ProductLogic());\n\n    event createProductEvent(address _owner, string _name, string _ean, string _sku, uint256 _numberTransactions,uint256 dna, uint8 _level);\n    event transferTokenEvent(address _from, address _to, address _idProduct);\n\n    // StockZStorage Storage\n    /**\n    @notice sets the address of the Storage contract\n    @dev Storage has all products saved in order to have an eternal storage\n    @param _StockZStorageAddr address of the Storage contract\n    */\n    function setStockZStorage(address _StockZStorageAddr) public onlyOwner {\n        stockZStorage = StockZStorage(address(_StockZStorageAddr));\n    }\n\n    function checkConnection() public pure returns(string memory){\n        return \"HOLA\";\n    }\n\n     // ProductToken Storage\n    /**\n    @notice sets the address of the Token contract\n    @dev Storage has all products association with their owners\n    @param _productTokenAddr address of the Storage contract\n    */\n    function setProductToken(address _productTokenAddr) public onlyOwner {\n        productToken = ProductToken(address(_productTokenAddr));\n    }\n\n    /**\n    @notice create a product and the token associated to this product.\n    @dev emits an event in order to know that a new product has been created\n    @param _ean ean of a product\n    @param _sku of a product\n    @param _name of a product\n    */\n    function createProduct(string memory _ean, string memory  _sku, string memory _name) public {\n        Product product = new Product(_ean,_sku,_name,productLogic);\n        uint256 tokenId = stockZStorage.getProducts().length;\n        stockZStorage.setProduct(product);\n        stockZStorage.setPositionProduct(product.getAddress(), tokenId);\n        productToken.mint(msg.sender, tokenId);\n        emit createProductEvent(msg.sender,_name,_ean,_sku,0,0,0);\n    }\n    \n    /**\n    @notice transfer the token from msg.sender to _to\n    @dev emits an event in order to know that a token has been transfered\n    @param _to the addres who is going to recieve the token\n    @param _idProduct address of a product\n    */\n    function transferProduct(address _to, address _idProduct) public {\n        uint256 tokenId = stockZStorage.getProductToken(_idProduct);\n        productToken.transferToken(msg.sender, _to, tokenId);\n        // stockZStorage.setProduct(stockZStorage.getProducts()[tokenId]);\n        stockZStorage.getProducts()[tokenId].mixDna(_to);\n        emit transferTokenEvent(msg.sender, _to, _idProduct);\n    }\n\n    /**\n    @notice gets all the producst kept in the storage\n    @return all the products\n    */\n    function getProducts()public view returns(Product[] memory) {\n        return stockZStorage.getProducts();\n    }\n    \n    /**\n    @notice gets all the attributes of a product \n    @param _idProduct address of the product to show\n    @return all the attributes\n    */\n    function getProductFromAddress(address _idProduct) public view returns(string memory, string memory, string memory, uint, uint, uint8){\n        uint256 tokenId = stockZStorage.getProductToken(_idProduct);\n        return(stockZStorage.getProducts()[tokenId].getName(), stockZStorage.getProducts()[tokenId].getEan(),stockZStorage.getProducts()[tokenId].getSku(),stockZStorage.getProducts()[tokenId].getTransactions(),stockZStorage.getProducts()[tokenId].getDnaProduct() , stockZStorage.getProducts()[tokenId].getLevel());\n    }\n    \n    /**\n    @notice gets the owner of a product\n    @dev we transform the product address into a tokenId\n    @param _idProduct address of the product \n    @return the address of the product\n    */\n    function getOwnerOfProduct(address _idProduct) public view returns(address){\n        uint256 tokenId = stockZStorage.getProductToken(_idProduct);\n        return productToken.getOwner(tokenId);\n    }\n    \n    /**\n    @notice gets the address of the storage \n    @return the address of the storage\n    */\n    function getStorageAddress() public view onlyOwner returns(address) {\n        return address(stockZStorage);\n    }\n    \n    /**\n    @notice gets the address of the productToken\n    @return the address of the productToken\n    */\n    function getProductTokenAddress() public view onlyOwner returns(address) {\n        return address(productToken);\n    }\n    \n    /**\n    @notice gets the total number of tokens\n    @return the total number of tokens\n    */\n    function getTotalTokens() public view returns(uint256) {\n        return productToken.totalTokens();\n    }\n    \n    /**\n    @notice gets the name of our tokens\n    @return the name of our tokens\n    */\n    function getCredentials() public view returns(string memory, string memory){\n        return(productToken.name(), productToken.symbol());\n    }\n    \n    /**\n    @notice give the number of tokens from a given address\n    @param _owner address which want to know about the number of tokens\n    @return the number of tokens\n    */\n    function getBalanceOwner(address _owner) public view returns(uint256) {\n        return productToken.balanceOf(_owner);\n    }\n\n    /**\n    @notice transfer the token associated to _product from _from to _to\n    @dev this function is only for the owner of the service\n    @param _from address who has the token\n    @param _to address who is going to recieve the token\n    @param _product address associated to the token\n    */\n    function transferByRequest(address _from, address _to, address _product)public onlyOwner{\n        uint256 tokenId = stockZStorage.getProductToken(_product);\n        productToken.transferToken(_from, _to, tokenId);\n    }\n}\n\n\n\n",
  "sourcePath": "/Users/ppolo/Documents/Master/TFM/CryptoStockZ/cryptostockz-contracts/contracts/CryptoStockZ.sol",
  "compiler": {
    "name": "solc",
    "version": "0.6.3+commit.8dda9521.Emscripten.clang"
  },
  "schemaVersion": "3.2.2",
  "updatedAt": "2020-09-05T15:41:55.437Z",
  "devdoc": {
    "methods": {
      "createProduct(string,string,string)": {
        "details": "emits an event in order to know that a new product has been created",
        "params": {
          "_ean": "ean of a product",
          "_name": "of a product",
          "_sku": "of a product"
        }
      },
      "getBalanceOwner(address)": {
        "params": {
          "_owner": "address which want to know about the number of tokens"
        },
        "returns": {
          "_0": "the number of tokens"
        }
      },
      "getOwnerOfProduct(address)": {
        "details": "we transform the product address into a tokenId",
        "params": {
          "_idProduct": "address of the product "
        },
        "returns": {
          "_0": "the address of the product"
        }
      },
      "getProductFromAddress(address)": {
        "params": {
          "_idProduct": "address of the product to show"
        },
        "returns": {
          "_0": "all the attributes"
        }
      },
      "setProductToken(address)": {
        "details": "Storage has all products association with their owners",
        "params": {
          "_productTokenAddr": "address of the Storage contract"
        }
      },
      "setStockZStorage(address)": {
        "details": "Storage has all products saved in order to have an eternal storage",
        "params": {
          "_StockZStorageAddr": "address of the Storage contract"
        }
      },
      "transferByRequest(address,address,address)": {
        "details": "this function is only for the owner of the service",
        "params": {
          "_from": "address who has the token",
          "_product": "address associated to the token",
          "_to": "address who is going to recieve the token"
        }
      },
      "transferOwnership(address)": {
        "details": "Allows the current owner to transfer control of the contract to a newOwner.",
        "params": {
          "newOwner": "The address to transfer ownership to."
        }
      },
      "transferProduct(address,address)": {
        "details": "emits an event in order to know that a token has been transfered",
        "params": {
          "_idProduct": "address of a product",
          "_to": "the addres who is going to recieve the token"
        }
      }
    }
  },
  "userdoc": {
    "methods": {
      "createProduct(string,string,string)": {
        "notice": "create a product and the token associated to this product."
      },
      "getBalanceOwner(address)": {
        "notice": "give the number of tokens from a given address"
      },
      "getCredentials()": {
        "notice": "gets the name of our tokens"
      },
      "getOwnerOfProduct(address)": {
        "notice": "gets the owner of a product"
      },
      "getProductFromAddress(address)": {
        "notice": "gets all the attributes of a product "
      },
      "getProductTokenAddress()": {
        "notice": "gets the address of the productToken"
      },
      "getProducts()": {
        "notice": "gets all the producst kept in the storage"
      },
      "getStorageAddress()": {
        "notice": "gets the address of the storage "
      },
      "getTotalTokens()": {
        "notice": "gets the total number of tokens"
      },
      "setProductToken(address)": {
        "notice": "sets the address of the Token contract"
      },
      "setStockZStorage(address)": {
        "notice": "sets the address of the Storage contract"
      },
      "transferByRequest(address,address,address)": {
        "notice": "transfer the token associated to _product from _from to _to"
      },
      "transferProduct(address,address)": {
        "notice": "transfer the token from msg.sender to _to"
      }
    }
  }
}