{
  "contractName": "Product",
  "abi": [
    {
      "inputs": [
        {
          "internalType": "string",
          "name": "_ean",
          "type": "string"
        },
        {
          "internalType": "string",
          "name": "_sku",
          "type": "string"
        },
        {
          "internalType": "string",
          "name": "_name",
          "type": "string"
        },
        {
          "internalType": "address",
          "name": "_productLogic",
          "type": "address"
        }
      ],
      "stateMutability": "nonpayable",
      "type": "constructor"
    },
    {
      "inputs": [
        {
          "internalType": "address",
          "name": "_address",
          "type": "address"
        }
      ],
      "name": "setLogicInterfaceAddress",
      "outputs": [],
      "stateMutability": "nonpayable",
      "type": "function"
    },
    {
      "inputs": [],
      "name": "getLogicContract",
      "outputs": [
        {
          "internalType": "contract LogicInterface",
          "name": "",
          "type": "address"
        }
      ],
      "stateMutability": "view",
      "type": "function"
    },
    {
      "inputs": [],
      "name": "getEan",
      "outputs": [
        {
          "internalType": "string",
          "name": "",
          "type": "string"
        }
      ],
      "stateMutability": "view",
      "type": "function"
    },
    {
      "inputs": [],
      "name": "getSku",
      "outputs": [
        {
          "internalType": "string",
          "name": "",
          "type": "string"
        }
      ],
      "stateMutability": "view",
      "type": "function"
    },
    {
      "inputs": [],
      "name": "getTransactions",
      "outputs": [
        {
          "internalType": "uint256",
          "name": "",
          "type": "uint256"
        }
      ],
      "stateMutability": "view",
      "type": "function"
    },
    {
      "inputs": [],
      "name": "getName",
      "outputs": [
        {
          "internalType": "string",
          "name": "",
          "type": "string"
        }
      ],
      "stateMutability": "view",
      "type": "function"
    },
    {
      "inputs": [],
      "name": "getAddress",
      "outputs": [
        {
          "internalType": "address",
          "name": "",
          "type": "address"
        }
      ],
      "stateMutability": "view",
      "type": "function"
    },
    {
      "inputs": [],
      "name": "getLevel",
      "outputs": [
        {
          "internalType": "uint8",
          "name": "",
          "type": "uint8"
        }
      ],
      "stateMutability": "view",
      "type": "function"
    },
    {
      "inputs": [],
      "name": "getDnaProduct",
      "outputs": [
        {
          "internalType": "uint256",
          "name": "",
          "type": "uint256"
        }
      ],
      "stateMutability": "view",
      "type": "function"
    },
    {
      "inputs": [
        {
          "internalType": "uint256",
          "name": "_dnaProduct",
          "type": "uint256"
        }
      ],
      "name": "setDnaProduct",
      "outputs": [],
      "stateMutability": "nonpayable",
      "type": "function"
    },
    {
      "inputs": [
        {
          "internalType": "uint8",
          "name": "_level",
          "type": "uint8"
        }
      ],
      "name": "setLevel",
      "outputs": [],
      "stateMutability": "nonpayable",
      "type": "function"
    },
    {
      "inputs": [
        {
          "internalType": "address",
          "name": "_user",
          "type": "address"
        }
      ],
      "name": "mixDna",
      "outputs": [],
      "stateMutability": "nonpayable",
      "type": "function"
    }
  ],
  "bytecode": "0x60806040523480156200001157600080fd5b5060405162000bf238038062000bf2833981810160405260808110156200003757600080fd5b81019080805160405193929190846401000000008211156200005857600080fd5b838201915060208201858111156200006f57600080fd5b82518660018202830111640100000000821117156200008d57600080fd5b8083526020830192505050908051906020019080838360005b83811015620000c3578082015181840152602081019050620000a6565b50505050905090810190601f168015620000f15780820380516001836020036101000a031916815260200191505b50604052602001805160405193929190846401000000008211156200011557600080fd5b838201915060208201858111156200012c57600080fd5b82518660018202830111640100000000821117156200014a57600080fd5b8083526020830192505050908051906020019080838360005b838110156200018057808201518184015260208101905062000163565b50505050905090810190601f168015620001ae5780820380516001836020036101000a031916815260200191505b5060405260200180516040519392919084640100000000821115620001d257600080fd5b83820191506020820185811115620001e957600080fd5b82518660018202830111640100000000821117156200020757600080fd5b8083526020830192505050908051906020019080838360005b838110156200023d57808201518184015260208101905062000220565b50505050905090810190601f1680156200026b5780820380516001836020036101000a031916815260200191505b506040526020018051906020019092919050505083600090805190602001906200029792919062000341565b508260019080519060200190620002b092919062000341565b5060006002819055506000600460006101000a81548160ff021916908360ff1602179055508160059080519060200190620002ed92919062000341565b50600060038190555080600660006101000a81548173ffffffffffffffffffffffffffffffffffffffff021916908373ffffffffffffffffffffffffffffffffffffffff16021790555050505050620003f0565b828054600181600116156101000203166002900490600052602060002090601f016020900481019282601f106200038457805160ff1916838001178555620003b5565b82800160010185558215620003b5579182015b82811115620003b457825182559160200191906001019062000397565b5b509050620003c49190620003c8565b5090565b620003ed91905b80821115620003e9576000816000905550600101620003cf565b5090565b90565b6107f280620004006000396000f3fe608060405234801561001057600080fd5b50600436106100b45760003560e01c806383920e901161007157806383920e901461029957806384dc0782146102b75780638b18c7e3146102fb5780638dd743de14610345578063a5985e8c146103c8578063bd5546be146103ec576100b4565b806317d7de7c146100b957806320af5a431461013c57806338cc48311461015a5780633dbe3854146101a45780634b00126e146101d2578063686690e614610216575b600080fd5b6100c161041d565b6040518080602001828103825283818151815260200191508051906020019080838360005b838110156101015780820151818401526020810190506100e6565b50505050905090810190601f16801561012e5780820380516001836020036101000a031916815260200191505b509250505060405180910390f35b6101446104bf565b6040518082815260200191505060405180910390f35b6101626104c9565b604051808273ffffffffffffffffffffffffffffffffffffffff1673ffffffffffffffffffffffffffffffffffffffff16815260200191505060405180910390f35b6101d0600480360360208110156101ba57600080fd5b81019080803590602001909291905050506104d1565b005b610214600480360360208110156101e857600080fd5b81019080803573ffffffffffffffffffffffffffffffffffffffff1690602001909291905050506104db565b005b61021e6105cb565b6040518080602001828103825283818151815260200191508051906020019080838360005b8381101561025e578082015181840152602081019050610243565b50505050905090810190601f16801561028b5780820380516001836020036101000a031916815260200191505b509250505060405180910390f35b6102a161066d565b6040518082815260200191505060405180910390f35b6102f9600480360360208110156102cd57600080fd5b81019080803573ffffffffffffffffffffffffffffffffffffffff169060200190929190505050610677565b005b6103036106bb565b604051808273ffffffffffffffffffffffffffffffffffffffff1673ffffffffffffffffffffffffffffffffffffffff16815260200191505060405180910390f35b61034d6106e5565b6040518080602001828103825283818151815260200191508051906020019080838360005b8381101561038d578082015181840152602081019050610372565b50505050905090810190601f1680156103ba5780820380516001836020036101000a031916815260200191505b509250505060405180910390f35b6103d0610787565b604051808260ff1660ff16815260200191505060405180910390f35b61041b6004803603602081101561040257600080fd5b81019080803560ff16906020019092919050505061079e565b005b606060058054600181600116156101000203166002900480601f0160208091040260200160405190810160405280929190818152602001828054600181600116156101000203166002900480156104b55780601f1061048a576101008083540402835291602001916104b5565b820191906000526020600020905b81548152906001019060200180831161049857829003601f168201915b5050505050905090565b6000600354905090565b600030905090565b8060038190555050565b600660009054906101000a900473ffffffffffffffffffffffffffffffffffffffff1673ffffffffffffffffffffffffffffffffffffffff1663e2ae5bab30836040518363ffffffff1660e01b8152600401808373ffffffffffffffffffffffffffffffffffffffff1673ffffffffffffffffffffffffffffffffffffffff1681526020018273ffffffffffffffffffffffffffffffffffffffff1673ffffffffffffffffffffffffffffffffffffffff16815260200192505050600060405180830381600087803b1580156105b057600080fd5b505af11580156105c4573d6000803e3d6000fd5b5050505050565b606060018054600181600116156101000203166002900480601f0160208091040260200160405190810160405280929190818152602001828054600181600116156101000203166002900480156106635780601f1061063857610100808354040283529160200191610663565b820191906000526020600020905b81548152906001019060200180831161064657829003601f168201915b5050505050905090565b6000600254905090565b80600660006101000a81548173ffffffffffffffffffffffffffffffffffffffff021916908373ffffffffffffffffffffffffffffffffffffffff16021790555050565b6000600660009054906101000a900473ffffffffffffffffffffffffffffffffffffffff16905090565b606060008054600181600116156101000203166002900480601f01602080910402602001604051908101604052809291908181526020018280546001816001161561010002031660029004801561077d5780601f106107525761010080835404028352916020019161077d565b820191906000526020600020905b81548152906001019060200180831161076057829003601f168201915b5050505050905090565b6000600460009054906101000a900460ff16905090565b80600460006101000a81548160ff021916908360ff1602179055505056fea264697066735822122071d9b4e198126f8edfef401c5713cded78ae8458cf12e8cf58fa00b8c0b37ec264736f6c63430006030033",
  "source": "//SPDX-License-Identifier: None\n// solium-disable linebreak-style\npragma solidity >=0.4.21;\n\n\n/**\n@title Interface of the logic behind the Users\n@notice This contract only defines the functions needed and implemented in UserLogic\n*/\ninterface LogicInterface {\n    function mixDna(Product _product, address _user) external;\n}\n\n/**\n@title Product\n@notice This contract contains the smart contract associated to the product\n*/\ncontract Product {\n    string ean;\n    string sku;\n    uint number_transactions;\n    uint dnaProduct;\n    uint8 level;\n    string name;\n\n    LogicInterface productLogicContract;\n    /**\n    @notice sets the address of the logic\n    @param _address address of the interface\n    */\n    function setLogicInterfaceAddress(address _address) external  {\n        productLogicContract = LogicInterface(_address);\n    }\n\n    /**\n    @notice gets the address where the logic contract is set\n    @return logicContract\n    */\n    function getLogicContract() public view returns (LogicInterface) {\n        return productLogicContract;\n    }\n\n    constructor(string memory _ean, string memory _sku, string memory _name, address _productLogic) public{\n        ean = _ean;\n        sku = _sku;\n        number_transactions = 0;\n        level = 0;\n        name = _name;\n        dnaProduct = 0;\n        productLogicContract = LogicInterface(_productLogic);\n    }\n    //GETTERS y SETTEERS\n\n    //getters\n    /**\n    @notice gets the ean of the product\n    @return ean of the product\n    */\n    function getEan() public view returns(string memory){\n        return ean;\n    }\n    /**\n    @notice gets the sku of the product\n    @return sku of the product\n    */\n    function getSku() public view returns(string memory){\n        return sku;\n    }\n    /**\n    @notice gets the number of transactions that a product has participated\n    @return number of transactions of the product\n    */\n    function getTransactions() public view returns(uint){\n        return number_transactions;\n    }\n    /**\n    @notice gets the name of the product\n    @return name of the product\n    */\n    function getName() public view returns(string memory){\n        return name;\n    }\n    /**\n    @notice gets the addres of a contract product\n    @return addres of the contract\n    */\n    function getAddress() public view returns(address){\n        return address(this);\n    }\n    /**\n    @notice gets the level of the product\n    @return level of the product\n    */\n    function getLevel() public view returns(uint8){\n        return level;\n    }\n    /**\n    @notice gets the dna of the product\n    @return dna of the product\n    */\n    function getDnaProduct() public view returns(uint256){\n        return dnaProduct;\n    }\n\n    //setters\n    /**\n    @notice add 1 to the number of transactions\n    */\n    function setTransactions() internal{\n        number_transactions++;\n    }\n    /**\n    @notice sets the dna of the product\n    @param _dnaProduct uint representing the dna of the product\n    */\n    function setDnaProduct(uint _dnaProduct) external{\n        dnaProduct = _dnaProduct;\n    }\n\n    /**\n    @notice sets the level of the product\n    @param _level uint representing the level of the product\n    */\n    function setLevel(uint8 _level) public {\n        level = _level;\n    }\n\n    // Logic functions\n    /**\n    @notice mix the dna of the product with the addres of _user\n    @param _user user to mix with the dna\n    */\n    function mixDna(address _user) public {\n        productLogicContract.mixDna(this,_user);\n    }\n\n}",
  "sourcePath": "/Users/ppolo/Documents/Master/TFM/CryptoStockZ/cryptostockz-contracts/contracts/Product.sol",
  "compiler": {
    "name": "solc",
    "version": "0.6.3+commit.8dda9521.Emscripten.clang"
  },
  "schemaVersion": "3.2.2",
  "updatedAt": "2020-09-04T17:40:24.453Z",
  "devdoc": {
    "methods": {
      "mixDna(address)": {
        "params": {
          "_user": "user to mix with the dna"
        }
      },
      "setDnaProduct(uint256)": {
        "params": {
          "_dnaProduct": "uint representing the dna of the product"
        }
      },
      "setLevel(uint8)": {
        "params": {
          "_level": "uint representing the level of the product"
        }
      },
      "setLogicInterfaceAddress(address)": {
        "params": {
          "_address": "address of the interface"
        }
      }
    },
    "title": "Product"
  },
  "userdoc": {
    "methods": {
      "getAddress()": {
        "notice": "gets the addres of a contract product"
      },
      "getDnaProduct()": {
        "notice": "gets the dna of the product"
      },
      "getEan()": {
        "notice": "gets the ean of the product"
      },
      "getLevel()": {
        "notice": "gets the level of the product"
      },
      "getLogicContract()": {
        "notice": "gets the address where the logic contract is set"
      },
      "getName()": {
        "notice": "gets the name of the product"
      },
      "getSku()": {
        "notice": "gets the sku of the product"
      },
      "getTransactions()": {
        "notice": "gets the number of transactions that a product has participated"
      },
      "mixDna(address)": {
        "notice": "mix the dna of the product with the addres of _user"
      },
      "setDnaProduct(uint256)": {
        "notice": "sets the dna of the product"
      },
      "setLevel(uint8)": {
        "notice": "sets the level of the product"
      },
      "setLogicInterfaceAddress(address)": {
        "notice": "sets the address of the logic"
      }
    },
    "notice": "This contract contains the smart contract associated to the product"
  }
}