{
  "contractName": "ProductLogic",
  "abi": [
    {
      "inputs": [
        {
          "internalType": "contract Product",
          "name": "_product",
          "type": "address"
        },
        {
          "internalType": "address",
          "name": "_user",
          "type": "address"
        }
      ],
      "name": "mixDna",
      "outputs": [],
      "stateMutability": "nonpayable",
      "type": "function"
    }
  ],
  "bytecode": "0x608060405234801561001057600080fd5b506105cb806100206000396000f3fe608060405234801561001057600080fd5b506004361061002b5760003560e01c8063e2ae5bab14610030575b600080fd5b6100926004803603604081101561004657600080fd5b81019080803573ffffffffffffffffffffffffffffffffffffffff169060200190929190803573ffffffffffffffffffffffffffffffffffffffff169060200190929190505050610094565b005b60008173ffffffffffffffffffffffffffffffffffffffff16905060008373ffffffffffffffffffffffffffffffffffffffff166320af5a436040518163ffffffff1660e01b815260040160206040518083038186803b1580156100f757600080fd5b505afa15801561010b573d6000803e3d6000fd5b505050506040513d602081101561012157600080fd5b81019080805190602001909291905050509050600061014983836101c590919063ffffffff16565b90508473ffffffffffffffffffffffffffffffffffffffff16633dbe38546101708361024d565b6040518263ffffffff1660e01b815260040180828152602001915050600060405180830381600087803b1580156101a657600080fd5b505af11580156101ba573d6000803e3d6000fd5b505050505050505050565b600080828401905083811015610243576040517f08c379a000000000000000000000000000000000000000000000000000000000815260040180806020018281038252601b8152602001807f536166654d6174683a206164646974696f6e206f766572666c6f77000000000081525060200191505060405180910390fd5b8091505092915050565b6000806000905060008090505b60048110156102c9576000610279600a866102d390919063ffffffff16565b905061028f600a8661031d90919063ffffffff16565b94506102b96102aa83600a0a8361036790919063ffffffff16565b846101c590919063ffffffff16565b925050808060010191505061025a565b5080915050919050565b600061031583836040518060400160405280601881526020017f536166654d6174683a206d6f64756c6f206279207a65726f00000000000000008152506103ed565b905092915050565b600061035f83836040518060400160405280601a81526020017f536166654d6174683a206469766973696f6e206279207a65726f0000000000008152506104ae565b905092915050565b60008083141561037a57600090506103e7565b600082840290508284828161038b57fe5b04146103e2576040517f08c379a00000000000000000000000000000000000000000000000000000000081526004018080602001828103825260218152602001806105756021913960400191505060405180910390fd5b809150505b92915050565b600080831415829061049a576040517f08c379a00000000000000000000000000000000000000000000000000000000081526004018080602001828103825283818151815260200191508051906020019080838360005b8381101561045f578082015181840152602081019050610444565b50505050905090810190601f16801561048c5780820380516001836020036101000a031916815260200191505b509250505060405180910390fd5b508284816104a457fe5b0690509392505050565b6000808311829061055a576040517f08c379a00000000000000000000000000000000000000000000000000000000081526004018080602001828103825283818151815260200191508051906020019080838360005b8381101561051f578082015181840152602081019050610504565b50505050905090810190601f16801561054c5780820380516001836020036101000a031916815260200191505b509250505060405180910390fd5b50600083858161056657fe5b04905080915050939250505056fe536166654d6174683a206d756c7469706c69636174696f6e206f766572666c6f77a2646970667358221220658fa09ed94bdb78492df9037936643b0ea6602717f9b738f59f7f0e07d5dc3464736f6c63430006030033",
  "source": "//SPDX-License-Identifier: None\n// solium-disable linebreak-style\npragma solidity >=0.4.21;\n\nimport './Product.sol';\nimport '@openzeppelin/contracts/math/SafeMath.sol';\ncontract ProductLogic {\n    using SafeMath for uint256;\n\n    /**\n    @notice takes the last four digits of _mixedDna\n    @dev use safeMath to calculate some counts\n    @param _mixedDna adn of a product\n    @return return the last four digits of the dna\n    */\n    function getLastDigits(uint256 _mixedDna) internal pure returns(uint256){\n        uint256 suma = 0;\n        for (uint256 i = 0; i < 4; i++){\n            uint256 lastDigit = _mixedDna.mod(10);\n            _mixedDna = _mixedDna.div(10);\n            suma = suma.add(lastDigit.mul(10**i));\n        }\n        return suma;\n    }\n\n    /**\n    @notice mix the dna of a product with the address of a user\n    @dev use safeMath to calculate some counts\n    @param _product product which is going to be used to mix its dna\n    @param _user User who is going to be used to mix his address\n    */\n    function mixDna(Product _product, address _user) public {\n        uint256 convertAddress = uint256(_user);\n        uint256 dna = _product.getDnaProduct();\n        uint256 mixed = dna.add(convertAddress);\n        _product.setDnaProduct(getLastDigits(mixed));\n    }\n  \n}",
  "sourcePath": "/Users/ppolo/Documents/Master/TFM/CryptoStockZ/cryptostockz-contracts/contracts/ProductLogic.sol",
  "compiler": {
    "name": "solc",
    "version": "0.6.3+commit.8dda9521.Emscripten.clang"
  },
  "schemaVersion": "3.2.2",
  "updatedAt": "2020-09-04T17:40:24.455Z",
  "devdoc": {
    "methods": {
      "mixDna(address,address)": {
        "details": "use safeMath to calculate some counts",
        "params": {
          "_product": "product which is going to be used to mix its dna",
          "_user": "User who is going to be used to mix his address"
        }
      }
    }
  },
  "userdoc": {
    "methods": {
      "mixDna(address,address)": {
        "notice": "mix the dna of a product with the address of a user"
      }
    }
  }
}