{
  "contractName": "StockZStorage",
  "abi": [
    {
      "inputs": [
        {
          "internalType": "address",
          "name": "_sender",
          "type": "address"
        }
      ],
      "stateMutability": "nonpayable",
      "type": "constructor"
    },
    {
      "inputs": [
        {
          "internalType": "address",
          "name": "_newVersion",
          "type": "address"
        },
        {
          "internalType": "address",
          "name": "_sender",
          "type": "address"
        }
      ],
      "name": "upgradeVersion",
      "outputs": [],
      "stateMutability": "nonpayable",
      "type": "function"
    },
    {
      "inputs": [],
      "name": "getProducts",
      "outputs": [
        {
          "internalType": "contract Product[]",
          "name": "",
          "type": "address[]"
        }
      ],
      "stateMutability": "view",
      "type": "function",
      "constant": true
    },
    {
      "inputs": [
        {
          "internalType": "contract Product",
          "name": "_value",
          "type": "address"
        }
      ],
      "name": "setProduct",
      "outputs": [],
      "stateMutability": "nonpayable",
      "type": "function"
    },
    {
      "inputs": [
        {
          "internalType": "address",
          "name": "_idProduct",
          "type": "address"
        }
      ],
      "name": "getProductToken",
      "outputs": [
        {
          "internalType": "uint256",
          "name": "",
          "type": "uint256"
        }
      ],
      "stateMutability": "view",
      "type": "function",
      "constant": true
    },
    {
      "inputs": [
        {
          "internalType": "address",
          "name": "_idProduct",
          "type": "address"
        },
        {
          "internalType": "uint256",
          "name": "_tokenId",
          "type": "uint256"
        }
      ],
      "name": "setPositionProduct",
      "outputs": [],
      "stateMutability": "nonpayable",
      "type": "function"
    }
  ],
  "bytecode": "0x608060405234801561001057600080fd5b506040516106633803806106638339818101604052602081101561003357600080fd5b8101908080519060200190929190505050806000806101000a81548173ffffffffffffffffffffffffffffffffffffffff021916908373ffffffffffffffffffffffffffffffffffffffff16021790555033600160006101000a81548173ffffffffffffffffffffffffffffffffffffffff021916908373ffffffffffffffffffffffffffffffffffffffff1602179055505061058e806100d56000396000f3fe608060405234801561001057600080fd5b50600436106100575760003560e01c80633a2f96011461005c5780634f954164146100aa578063786962bd1461010e578063aa232d2514610152578063c29b2f20146101aa575b600080fd5b6100a86004803603604081101561007257600080fd5b81019080803573ffffffffffffffffffffffffffffffffffffffff16906020019092919080359060200190929190505050610209565b005b61010c600480360360408110156100c057600080fd5b81019080803573ffffffffffffffffffffffffffffffffffffffff169060200190929190803573ffffffffffffffffffffffffffffffffffffffff169060200190929190505050610251565b005b6101506004803603602081101561012457600080fd5b81019080803573ffffffffffffffffffffffffffffffffffffffff169060200190929190505050610358565b005b6101946004803603602081101561016857600080fd5b81019080803573ffffffffffffffffffffffffffffffffffffffff169060200190929190505050610481565b6040518082815260200191505060405180910390f35b6101b26104ca565b6040518080602001828103825283818151815260200191508051906020019060200280838360005b838110156101f55780820151818401526020810190506101da565b505050509050019250505060405180910390f35b80600260008473ffffffffffffffffffffffffffffffffffffffff1673ffffffffffffffffffffffffffffffffffffffff168152602001908152602001600020819055505050565b6000809054906101000a900473ffffffffffffffffffffffffffffffffffffffff1673ffffffffffffffffffffffffffffffffffffffff168173ffffffffffffffffffffffffffffffffffffffff1614610313576040517f08c379a000000000000000000000000000000000000000000000000000000000815260040180806020018281038252600a8152602001807f6f6e6c79206f776e65720000000000000000000000000000000000000000000081525060200191505060405180910390fd5b81600160006101000a81548173ffffffffffffffffffffffffffffffffffffffff021916908373ffffffffffffffffffffffffffffffffffffffff1602179055505050565b600160009054906101000a900473ffffffffffffffffffffffffffffffffffffffff1673ffffffffffffffffffffffffffffffffffffffff163373ffffffffffffffffffffffffffffffffffffffff161461041b576040517f08c379a00000000000000000000000000000000000000000000000000000000081526004018080602001828103825260138152602001807f6f6e6c79206c61746573742076657273696f6e0000000000000000000000000081525060200191505060405180910390fd5b6003819080600181540180825580915050600190039060005260206000200160009091909190916101000a81548173ffffffffffffffffffffffffffffffffffffffff021916908373ffffffffffffffffffffffffffffffffffffffff16021790555050565b6000600260008373ffffffffffffffffffffffffffffffffffffffff1673ffffffffffffffffffffffffffffffffffffffff168152602001908152602001600020549050919050565b6060600380548060200260200160405190810160405280929190818152602001828054801561054e57602002820191906000526020600020905b8160009054906101000a900473ffffffffffffffffffffffffffffffffffffffff1673ffffffffffffffffffffffffffffffffffffffff1681526020019060010190808311610504575b505050505090509056fea26469706673582212204eedebab647a9137757b97d3de00483e8dd19cac2fe3a426316814bfa6b60c9164736f6c63430006030033",
  "source": "//SPDX-License-Identifier: None\npragma solidity >=0.4.25 <0.7.0;\n\nimport './Product.sol';\n\n/**\n@title Storage of all the bussines\n@notice This contract contains all the lotteries created in the system\n@dev This contract makes easy to update the logic by dividing the logic and the storage\n*/\ncontract StockZStorage {\n\n    address owner;\n    address latestVersion;\n\n    // mapping que pasa del id del producto a la posicion donde esta guardados(tokenId)\n    mapping(address => uint256) internal mapPosition;\n    Product[] products;\n    \n    // Given a product address maps the owner of that product\n    // mapping(Product => User)productOwnedByUser;\n\n    /**\n    @notice checks if the contract calling is the latest version provided\n    */\n    modifier onlyLatestVersion() {\n       require(msg.sender == latestVersion, 'only latest version');\n        _;\n    }\n    \n    constructor(address _sender) public {\n        owner = _sender;\n        latestVersion = msg.sender;\n    }\n\n    function upgradeVersion(address _newVersion, address _sender) public {\n        require(_sender == owner, 'only owner');\n        latestVersion = _newVersion;\n    }\n    \n    /**\n    @notice gets a Product by its address\n    @param _key address of the Product\n    @return the Product\n    function getProduct(address _key) external view returns(Product){\n        return productStorage[_key];\n    }\n    */\n\n    /**\n    @notice gets all the Products saved\n    @return the Products\n    */\n    function getProducts() external view returns (Product[] memory){\n        return products;\n    }\n\n    // *** Setter Methods ***\n    /**\n     @notice adds a new Product to the storage mapping and array\n     @dev can only be executed by the latest version contract\n     @param _value Product to save\n    */\n    function setProduct(Product _value) external onlyLatestVersion {\n        products.push(_value);\n    }\n    \n    /**\n     @notice Get the position of the product searched and returns the token.\n     @param _idProduct Product's address\n    */\n    function getProductToken(address _idProduct) external view returns(uint256){\n        return mapPosition[_idProduct];\n    }\n    \n    /**\n     @notice Set the position of the product in the mapping.\n     @param _idProduct Product's id\n     @param _tokenId Position at the array\n     */\n    function setPositionProduct(address _idProduct, uint256 _tokenId) external {\n        mapPosition[_idProduct] = _tokenId;\n    }\n}",
  "sourcePath": "/Users/ppolo/Documents/Master/TFM/CryptoStockZ/cryptostockz-contracts/contracts/StockZStorage.sol",
  "compiler": {
    "name": "solc",
    "version": "0.6.3+commit.8dda9521.Emscripten.clang"
  },
  "schemaVersion": "3.2.2",
  "updatedAt": "2020-09-05T15:35:03.912Z",
  "networkType": "ethereum",
  "devdoc": {
    "details": "This contract makes easy to update the logic by dividing the logic and the storage",
    "methods": {
      "getProductToken(address)": {
        "params": {
          "_idProduct": "Product's address"
        }
      },
      "setPositionProduct(address,uint256)": {
        "params": {
          "_idProduct": "Product's id",
          "_tokenId": "Position at the array"
        }
      },
      "setProduct(address)": {
        "details": "can only be executed by the latest version contract",
        "params": {
          "_value": "Product to save"
        }
      }
    },
    "title": "Storage of all the bussines"
  },
  "userdoc": {
    "methods": {
      "getProductToken(address)": {
        "notice": "Get the position of the product searched and returns the token."
      },
      "getProducts()": {
        "notice": "gets all the Products saved"
      },
      "setPositionProduct(address,uint256)": {
        "notice": "Set the position of the product in the mapping."
      },
      "setProduct(address)": {
        "notice": "adds a new Product to the storage mapping and array"
      }
    },
    "notice": "This contract contains all the lotteries created in the system"
  }
}